:020000040000FA
:0400000007EF00F016
:100008007F8285ED04F0FDEF14F0720ED36E0F0EB3
:10001800C16E000E926E9368900E946E9568000EF5
:10002800966E810ED56E3C0ED76EB00ED66EF294DB
:10003800F29A010ECD6EB10ECF6EE00ECE6E260E88
:10004800CA6EFA0ECB6E89948B928B94000E0101C6
:10005800FE6F010EFD6F000EFC6F010EFB6F000EB0
:10006800FA6F010EF96F000EF86F010EF76F000EB0
:10007800F66F010EF56F000E0001F76F010EF66FB7
:10008800000E0101F46F010EF36F000E0001F56F11
:10009800010EF46F000E0101F26F010EF16F000EF8
:1000A8000201726F010E716F000E706F010E6F6F9B
:1000B800000E6E6F010E6D6F000E0001F36F010EE2
:1000C800F26F000E02016C6F010E6B6F83B66FEF5B
:1000D80000F074EF00F00001BF6BBF2B76EF00F06B
:1000E8000001BF6BBF51F66FF76B83B47EEF00F072
:1000F80082EF00F0BF6BBF2B84EF00F00001BF6BF5
:10010800BF51F26FF36B000E0101F06F010EEF6F3C
:10011800000E0001EC6F000EEB6F000EEA6F000E90
:10012800E96F000EE86F000EE76F000EE66F000E35
:10013800E56F000EE46F000EE36F000EF96F630EBB
:10014800F86F000EDE6F000EDD6F000EE26F000E1E
:10015800E16F000EDC6F000EDB6F000EDA6F000E31
:10016800D96F000ED86F000ED76F000ED66F000E35
:10017800D56F000EB76F960EB86F000EB96F000EF0
:10018800BA6FB2EC14F0F28EF28C9D8A000E000168
:10019800C46F000EC36FC4BFDBEF00F0C45109E1A8
:1001A800330EC35DD8A0DBEF00F0DDEF00F0DFEF2A
:1001B80000F0F2EF00F0FC0E806F7F0E816F40ECD4
:1001C80015F04E0E0001BF6FEB0EE82EFED7BF2FC5
:1001D800FCD70001C34BC42BCFEF00F0DD0E806FBE
:1001E8007F0E816F40EC15F0FC0E0001806F000E51
:1001F800816F40EC15F0320E0001806F7F0E816F29
:1002080040EC15F0FC0E0001806F000E816F40EC91
:1002180015F0920E0001806F7E0E816F40EC15F094
:10022800FC0E0001806F000E816F40EC15F0470E48
:100238000001806F7F0E816F40EC15F0FC0E00010D
:10024800806F000E816F40EC15F0DD0E0001806FAD
:100258007F0E816F40EC15F0FC0E0001806F000EE0
:10026800816F40EC15F05B0E0001806F7F0E816F8F
:1002780040EC15F0FC0E0001806F000E816F40EC21
:1002880015F0DD0E0001806F7F0E816F40EC15F0D8
:10029800FC0E0001806F000E816F40EC15F0970E88
:1002A8000001806F7F0E816F40EC15F0FC0E00019D
:1002B800806F000E816F40EC15F0920E0001806F88
:1002C8007E0E816F40EC15F0FC0E0001806F000E71
:1002D800816F40EC15F04E0E0001BF6FEB0EE82E5B
:1002E800FED7BF2FFCD7000E0001EA6F030EE96F9F
:1002F8008D80899A8B82000ED06F000ECF6FB10E61
:10030800CF6EE00ECE6E9E909D80B70E806F7F0EF2
:10031800816F40EC15F0FC0E0001806F000E816FBC
:1003280040EC15F0B30E0001806F7E0E816F40EC3B
:1003380015F0FC0E0001806F000E816F40EC15F087
:10034800000E0001D46F000ED36F81B8AEEF01F03C
:10035800B0EF01F0D3EF01F00001F405F511D8A4D6
:10036800B8EF01F0BAEF01F0D3EF01F0020E00018F
:10037800C06F040EBF6FBA0EE82EFED7BF2FFCD792
:10038800C02FFAD700F081B8CCEF01F0CEEF01F022
:10039800D3EF01F0000E0001F56F000EF46F81A895
:1003A800D8EF01F0DAEF01F0DFEF01F0000E000105
:1003B800F56F010EF46F83B6E4EF01F0E6EF01F09C
:1003C80009EF02F00001F605F711D8A4EEEF01F0ED
:1003D800F0EF01F009EF02F0020E0001C06F040E09
:1003E800BF6FBA0EE82EFED7BF2FFCD7C02FFAD7A3
:1003F80000F083B602EF02F004EF02F009EF02F01A
:10040800000E0001F76F000EF66F83A60EEF02F0E4
:1004180010EF02F015EF02F0000E0001F76F010E69
:10042800F66F83B41AEF02F01CEF02F03FEF02F010
:100438000001F205F311D8A424EF02F026EF02F030
:100448003FEF02F0020E0001C06F040EBF6FBA0E3C
:10045800E82EFED7BF2FFCD7C02FFAD700F083B401
:1004680038EF02F03AEF02F03FEF02F0000E000121
:10047800F36F000EF26F83A444EF02F046EF02F030
:100488004BEF02F0000E0001F36F010EF26F000156
:10049800DF51E011D8A453EF02F055EF02F05EEF00
:1004A80002F0F405F511D8B45CEF02F05EEF02F04B
:1004B80072EF02F00101EF05F011D8A466EF02F027
:1004C80068EF02F0A0EF02F00001F405F511D8A4DE
:1004D80070EF02F072EF02F0A0EF02F0000EE06F92
:1004E800010EDF6F830E806F7F0E816F40EC15F079
:1004F800FC0E0001806F000E816F40EC15F0F2AA2F
:1005080088EF02F08AEF02F0A0EF02F0000E00017F
:10051800E86F000EE76FF29A899489928990060E27
:10052800806F7F0E816F40EC15F0FC0E0001806F2C
:10053800000E816F40EC15F00001DF05E011D8A432
:10054800A8EF02F0AAEF02F0B3EF02F0F451F511B0
:10055800D8B4B1EF02F0B3EF02F0C7EF02F0010137
:10056800EF05F011D8A4BBEF02F0BDEF02F0F5EFF4
:1005780002F00001F451F511D8A4C5EF02F0C7EF5D
:1005880002F0F5EF02F0000EE06F000EDF6F1C0EB8
:10059800806F7F0E816F40EC15F0FC0E0001806FBC
:1005A800000E816F40EC15F0F2AADDEF02F0DFEFEC
:1005B80002F0F5EF02F0000E0001E86F000EE76FA1
:1005C800F29A899489928990060E806F7F0E816FC6
:1005D80040EC15F0FC0E0001806F000E816F40ECBE
:1005E80015F00001D351D411D8A4FDEF02F0FFEFAC
:1005F80002F0A9EF01F0F1C1BFF0F2C1C0F0D8904C
:10060800BF37C037F4C0C1F0F5C0C2F0D890C137C9
:10061800C237D890C137C237BF51C127C051C22392
:100628000101FB510001C125EB6F0101FC510001E3
:10063800C221EC6FF6C0BFF0F7C0C0F0D890BF374A
:10064800C037F251BF25E56FF351C021E66FF605BB
:10065800F711D8A432EF03F034EF03F041EF03F0C1
:10066800F205F311D8A43BEF03F03DEF03F041EF9F
:1006780003F0000EE46F020EE36FF651F711D8A4F1
:1006880048EF03F04AEF03F057EF03F0F205F311D8
:10069800D8A451EF03F053EF03F057EF03F0000E27
:1006A800E46F000EE36FF651F711D8A45EEF03F084
:1006B80060EF03F06DEF03F0F251F311D8A467EF88
:1006C80003F069EF03F06DEF03F0000EE46F010E25
:1006D800E36FF605F711D8A474EF03F076EF03F093
:1006E80083EF03F0F251F311D8A47DEF03F07FEF0D
:1006F80003F083EF03F0000EE46F000EE36F83B6A0
:1007080088EF03F08AEF03F0ACEF03F0F605F7117A
:10071800D8A491EF03F093EF03F0ACEF03F0020ECF
:100728000001C06F040EBF6FBA0EE82EFED7BF2FB0
:10073800FCD7C02FFAD700F083B6A5EF03F0A7EFD8
:1007480003F0ACEF03F0000E0001F76F000EF66F38
:1007580083A6B1EF03F0B3EF03F0B8EF03F0000E98
:100768000001F76F010EF66F83B4BDEF03F0BFEF22
:1007780003F0E2EF03F00001F205F311D8A4C7EF8C
:1007880003F0C9EF03F0E2EF03F0020E0001C06FBF
:10079800040EBF6FBA0EE82EFED7BF2FFCD7C02FAE
:1007A800FAD700F083B4DBEF03F0DDEF03F0E2EFFC
:1007B80003F0000E0001F36F000EF26F83A4E7EF61
:1007C80003F0E9EF03F0EEEF03F0000E0001F36F22
:1007D800010EF26F0001F251F311D8A4F6EF03F005
:1007E800F8EF03F005EF04F0F651F711D8A4FFEF86
:1007F80003F001EF04F005EF04F0000EF96F020EAC
:10080800F86FF251F311D8A40CEF04F00EEF04F0D6
:100818001BEF04F0F605F711D8A415EF04F017EF55
:1008280004F01BEF04F0000EF96F000EF86FF205EC
:10083800F311D8A422EF04F024EF04F031EF04F010
:10084800F651F711D8A42BEF04F02DEF04F031EF97
:1008580004F0000EF96F000EF86FF251F311D8B4DE
:1008680038EF04F03AEF04F047EF04F0F651F711CF
:10087800D8B441EF04F043EF04F047EF04F0000E62
:10088800F96F010EF86F020EF819F911D8A44FEF9D
:1008980004F051EF04F05AEF04F0F651F711D8B410
:1008A80058EF04F05AEF04F068EF04F0E751E8114C
:1008B800D8A461EF04F063EF04F068EF04F08B84D0
:1008C8009E929D827CEF04F0E705E811D8A46FEFB3
:1008D80004F071EF04F078EF04F08B848D848D922E
:1008E8009E929D927CEF04F08B948D948D929D92B4
:1008F800000E0101F06F000EEF6FA9EF01F007EF96
:1009080000F00600E1CF74F0E2CF75F0D9CF76F0B1
:10091800DACF77F0F3CF78F0F4CF79F0F6CF7AF03A
:10092800F7CF7BF0F8CF7CF0F5CF7DF09EAA9FEF54
:1009380004F0A1EF04F05EEF06F09DAAA6EF04F024
:10094800A8EF04F05EEF06F09E9AAECF7EF011EFAE
:1009580006F0080E0001E919EA11D8A4B6EF04F070
:10096800B8EF04F05EEF06F0000EEA6F030EE96FD1
:100978008D80899A8B82000ED06F000ECF6FB10EDA
:10098800CF6EE00ECE6E9E909D80B70E016E7F0EEC
:10099800026E78EC15F0FC0E016E000E026E78EC1B
:1009A80015F0B30E016E7E0E026E78EC15F0FC0E9B
:1009B800016E000E026E78EC15F05EEF06F0090E7F
:1009C8000001E919EA11D8A4ECEF04F0EEEF04F005
:1009D8005EEF06F0000EEA6F020EE96F8D90898ACD
:1009E8008B82000ED06F000ECF6FB10ECF6EE00E6F
:1009F800CE6E9E909D80C30E016E7F0E026E78ECC7
:100A080015F0FC0E016E000E026E78EC15F0D10E9A
:100A1800016E7E0E026E78EC15F0DBEF04F000013B
:100A2800E751E811D8A41BEF05F01DEF05F05EEFC4
:100A380006F0000EE86F010EE76F898889968982B3
:100A480089908984000EDC6F010EDB6F000EDA6F6F
:100A5800000ED96F000ED26F000ED16FF28AEE0E23
:100A6800016E7E0E026E78EC15F0DBEF04F0000EDE
:100A78000001D46F000ED36F5EEF06F0020E000186
:100A8800F819F911D8A44BEF05F04DEF05F053EF25
:100A980005F0000EDE6F010EDD6F5EEF06F0000E52
:100AA800F96F000EF86F3B0E016E7E0E026E78EC49
:100AB80015F0DBEF04F0BB0E016E010E026E78EC50
:100AC80015F0FC0E016E000E026E78EC15F05EEF6C
:100AD80006F00001D351D411D8A475EF05F077EFD3
:100AE80005F085EF05F0A10E016E010E026E78EC9F
:100AF80015F0FC0E016E000E026E78EC15F05EEF3C
:100B080006F0840E016E010E026E78EC15F0FC0EF4
:100B1800016E000E026E78EC15F05EEF06F0AA0E7C
:100B2800016E7F0E026E78EC15F0ED0E626E000E0F
:100B3800636EF70E646E7F0E656EF8C066F0F9C0DE
:100B480067F016EC16F0ED0E016E000E026E78ECF2
:100B580015F0CE0E016E7F0E026E78EC15F0ED0EDC
:100B6800626E000E636EED0E646E7F0E656EE9C0F8
:100B780066F0EAC067F016EC16F0ED0E016E000E96
:100B8800026E78EC15F0DF0E016E7F0E026E78ECC7
:100B980015F0ED0E626E000E636EF20E646E7F0E3F
:100BA800656EE7C066F0E8C067F016EC16F0ED0E6B
:100BB800016E000E026E78EC15F0D80E016E7F0EF5
:100BC800026E78EC15F0ED0E626E000E636EF20E9A
:100BD800646E7F0E656EEBC066F0ECC067F016ECD5
:100BE80016F0ED0E016E000E026E78EC15F0FC0E9C
:100BF800016E000E026E78EC15F05EEF06F0000E46
:100C0800016E020E026E78EC15F0FC0E016E000EFD
:100C1800026E78EC15F05EEF06F07E50726E736A25
:100C28007350000AD8B41BEF06F003EF06F07250B9
:100C3800410AD8B442EF05F0030AD8B46DEF05F0C5
:100C4800010AD8B4ADEF04F0060AD8B43BEF05F0BA
:100C58000A0AD8B4E3EF04F01C0AD8B493EF05F0FD
:100C6800060AD8B413EF05F0030AD8B45FEF05F00D
:100C7800370AD8B442EF05F0030AD8B46DEF05F08F
:100C8800010AD8B4ADEF04F0060AD8B43BEF05F07A
:100C98000A0AD8B4E3EF04F01C0AD8B493EF05F0BD
:100CA800060AD8B413EF05F0030AD8B45FEF05F0CD
:100CB80003EF06F0F2A463EF06F065EF06F0E7EF46
:100CC80006F0F2AA6AEF06F06CEF06F0E7EF06F01E
:100CD800F2943C0ED76EB00ED66E640E0001D1258C
:100CE800D16F000ED221D26FDB05DC11D8A47FEFC3
:100CF80006F081EF06F0A1EF06F089888996640E68
:100D0800D925D96F000EDA21DA6FDABF95EF06F030
:100D1800B00ED95D040EDA59D8A095EF06F097EF1A
:100D280006F0BFEF06F0000EDC6F000EDB6F000E62
:100D3800DA6F000ED96FBFEF06F089988996640EB6
:100D4800D925D96F000EDA21DA6FDABFB5EF06F0D0
:100D5800900ED95D010EDA59D8A0B5EF06F0B7EFBD
:100D680006F0BFEF06F0000EDC6F010EDB6F000E21
:100D7800DA6F000ED96FD2BFCBEF06F0040ED15D4B
:100D8800290ED259D8A0CBEF06F0CDEF06F0E7EF49
:100D980006F0000EE86F000EE76F000ED26F000E2F
:100DA800D16FF29A89948992899089988996670E69
:100DB800016E7E0E026E78EC15F0FC0E016E000ED0
:100DC800026E78EC15F09EA0ECEF06F0EEEF06F060
:100DD8004DEF07F09DA0F3EF06F0F5EF06F04DEFAD
:100DE80007F09E90B10ECF6EE00ECE6E0A0E000197
:100DF800CF25CF6F000ED021D06FD0BF0DEF07F0F9
:100E0800E40ECF5D070ED059D8A00DEF07F00FEF15
:100E180007F04DEF07F0000ED06F000ECF6F9D90DA
:100E28008B928D90899A030EE919EA11D8A41FEFC5
:100E380007F021EF07F032EF07F0E60E016E7F0EA4
:100E4800026E78EC15F0FC0E016E000E026E78EC66
:100E580015F0000E0001EA6F090EE96F020EE9199C
:100E6800EA11D8A43AEF07F03CEF07F04DEF07F08E
:100E7800C90E016E7F0E026E78EC15F0FC0E016E45
:100E8800000E026E78EC15F0000E0001EA6F080EF5
:100E9800E96F9EA252EF07F054EF07F0AAEF07F0B0
:100EA8009DA259EF07F05BEF07F0AAEF07F09E92BB
:100EB8000A0E0001CD25CD6F000ECE21CE6FD705CD
:100EC800D811D8A46AEF07F06CEF07F08CEF07F0A1
:100ED8008D848D920A0ED525D56F000ED621D66F3A
:100EE800D6BF80EF07F0D65109E18C0ED55DD8A0AA
:100EF80080EF07F082EF07F0AAEF07F0000ED86F37
:100F0800000ED76F000ED66F000ED56FAAEF07F050
:100F18008D948D920A0ED525D56F000ED621D66FE9
:100F2800D6BFA0EF07F0800ED55D070ED659D8A022
:100F3800A0EF07F0A2EF07F0AAEF07F0000ED86FB6
:100F4800010ED76F000ED66F000ED56F7DC0F5FF6E
:100F58007CC0F8FF7BC0F7FF7AC0F6FF79C0F4FFCA
:100F680078C0F3FF77C0DAFF76C0D9FF75C0E2FF1B
:100F780074C0E1FF7F9211000001AA51800BB36F8A
:100F8800AA51AA25B56FA9AFCCEF07F0CEEF07F0AD
:100F9800CFEF07F0B581B551D8B4D5EF07F0D7EF4B
:100FA80007F0ECEF07F0B529D8A4DDEF07F0DFEF85
:100FB80007F0E7EF07F0000EA76F000EA86F000E0E
:100FC800A96F000EAA6FA98F000EAA6FF4EF07F0A1
:100FD800000EA76F000EA86F000EA96F000EAA6F73
:100FE800AE51800BB46FB351B419D8B4FEEF07F00B
:100FF80000EF08F001EF08F0B38DAE51AE25B46FE5
:10100800ADAF09EF08F00BEF08F00CEF08F0B48172
:10101800B451D8B412EF08F014EF08F029EF08F033
:10102800B429D8A41AEF08F01CEF08F024EF08F050
:10103800000EAB6F000EAC6F000EAD6F000EAE6F02
:10104800AD8F000EAE6F31EF08F0000EAB6F000EE3
:10105800AC6F000EAD6F000EAE6FB551B45DD8B079
:1010680038EF08F03AEF08F061EF08F0B3AD3FEF62
:1010780008F041EF08F043EF08F0800EB31BB5C04D
:10108800B6F0B4C0B5F0B6C0B4F0A7C0B6F0ABC007
:10109800A7F0B6C0ABF0A8C0B6F0ACC0A8F0B6C018
:1010A800ACF0A9C0B6F0ADC0A9F0B6C0ADF0AAC00A
:1010B800B6F0AEC0AAF0B6C0AEF0000EB66FB5512D
:1010C800B4C0AFF0B06BAF5F000EB05BB0BF76EFEF
:1010D80008F0B05109E11A0EAF5DD8A076EF08F01C
:1010E80078EF08F0AFEF08F0A751A811A911AA11DD
:1010F800D8A481EF08F084EF08F0010E85EF08F01E
:10110800000EB66F000EA76F000EA86F000EA96F35
:10111800000EAA6FB4C0B5F0B8EF08F0B6A197EF0B
:1011280008F099EF08F09FEF08F0D890B631010960
:10113800B66FA1EF08F0D890B633A7A1A6EF08F0D4
:10114800A8EF08F0A9EF08F0B68FAA35AA33A9339B
:10115800A833A733B52BB451B55DD8A0B6EF08F0C6
:10116800B8EF08F092EF08F0B3BDBDEF08F0BFEF9D
:1011780008F0FFEF08F0B551D8A4C5EF08F0C7EFA5
:1011880008F0D1EF08F0000EA76F000EA86F000E50
:10119800A96F000EAA6F20EF0AF0AB51A727AC5138
:1011A800A823AD51A923AE51AA23AAA1DEEF08F0C6
:1011B800E0EF08F08CEF09F0B6A1E5EF08F0E7EFF3
:1011C80008F0EDEF08F0D890B6310109B66FEFEFEF
:1011D80008F0D890B633A7A1F4EF08F0F6EF08F0BE
:1011E800F7EF08F0B68FAA35AA33A933A833A73387
:1011F800B52B8CEF09F0AB51A75DAC51A859AD5197
:10120800A959AA51800AAF6FAE51800AAF59D8B018
:1012180010EF09F012EF09F03DEF09F0A751AB5DAF
:10122800AF6FA851AC59B06FA951AD59B16FAA5160
:10123800AE59B26FFF0EAF25A76FFF0EB021A86F92
:10124800FF0EB121A96FFF0EB221AA6F800EB31B4A
:10125800B66DB651D8A433EF09F035EF09F045EF74
:1012680009F0010EA727000EA823A923AA2345EFFA
:1012780009F0AB51A75FAC51A85BAD51A95BAE516A
:10128800AA5BA751A811A911AA11D8A44EEF09F079
:1012980050EF09F085EF09F0B651D8A456EF09F0E0
:1012A80058EF09F085EF09F0000EA76F000EA86F40
:1012B800000EA96F000EAA6F20EF0AF0D890A7378A
:1012C800A837A937AA37B6AF6CEF09F06EEF09F067
:1012D8006FEF09F0A781B6A174EF09F076EF09F076
:1012E8007AEF09F0D880B6377CEF09F0D890B63796
:1012F800B551D8B482EF09F084EF09F085EF09F011
:10130800B507A9AF8AEF09F08CEF09F062EF09F091
:10131800000EB46FB6AF93EF09F095EF09F0ADEF9B
:1013280009F0B6C0AFF07F0EAF17D8B49EEF09F042
:10133800A0EF09F0A4EF09F0010EB46FADEF09F0CA
:10134800A7A1A9EF09F0ABEF09F0ADEF09F0A0EF05
:1013580009F0B451D8B4B3EF09F0B5EF09F0E0EFF4
:1013680009F0010EA727000EA823A923AA23AAA1E2
:10137800C0EF09F0C2EF09F0E0EF09F0A7C0AFF045
:10138800A8C0B0F0A9C0B1F0AAC0B2F0B235B2336B
:10139800B133B033AF33AFC0A7F0B0C0A8F0B1C01D
:1013A800A9F0B2C0AAF0B529D8B4DDEF09F0DFEF93
:1013B80009F0E0EF09F0B52BB529D8B4E6EF09F04C
:1013C800E8EF09F0F0EF09F0B551D8A4EEEF09F015
:1013D800F0EF09F002EF0AF0000EA76F000EA86FF9
:1013E800000EA96F000EAA6FB551D8A4FEEF09F040
:1013F80000EF0AF002EF0AF0000EB36FB5A107EF95
:101408000AF009EF0AF00CEF0AF0A98F0DEF0AF0C5
:10141800A99FD890B531AA6FB3AF15EF0AF017EFAF
:101428000AF018EF0AF0AA8FA7C0A7F0A8C0A8F082
:10143800A9C0A9F0AAC0AAF0120045C0D9FF46C0A9
:10144800DAFFDECFF6FFDDCFF7FF0800F550250AFB
:10145800D8A431EF0AF033EF0AF021EF0CF045C0C1
:10146800D9FF46C0DAFFDE2A000EDD22000E000199
:10147800C86F000EC76FC7C0CBF0C8C0CCF0C96931
:10148800CA69000E4E6E000E4D6E96EF0AF000010E
:10149800CB8145C0D9FF46C0DAFFDE2A000EDD2227
:1014A80096EF0AF00001CB834DEF0AF00001CB85DF
:1014B8004DEF0AF00001CB874DEF0AF00001CB8910
:1014C8004DEF0AF0000E4E6E010E4D6E96EF0AF0CB
:1014D80045C0D9FF46C0DAFFDECFF6FFDDCFF7FF04
:1014E8000800F550496E4A6A4A50000AD8B47FEF9E
:1014F8000AF066EF0AF04950200AD8B45EEF0AF005
:10150800030AD8B462EF0AF0080AD8B45AEF0AF00E
:10151800060AD8B44BEF0AF01D0AD8B456EF0AF001
:1015280066EF0AF04D504E10D8B49DEF0AF09FEFC9
:101538000AF06CEF0AF00001CBA1A5EF0AF0A7EFC3
:101548000AF0A8EF0AF0CB9345C0D9FF46C0DAFFEE
:10155800DECFF6FFDDCFF7FF0800F5502A0AD8A442
:10156800B8EF0AF0BAEF0AF0E3EF0AF045C0D9FF86
:1015780046C0DAFFDE2A000EDD2247C0D9FF48C088
:10158800DAFFDFCF49F0020EDE26DFCF4AF0000E89
:10159800DD2249C0D9FF4AC0DAFFDECFC7F0DDCF70
:1015A800C8F0C8BFDCEF0AF0DAEF0AF026EF0BF05C
:1015B800CB81C76DC81FD8B0C82B26EF0BF045C02C
:1015C800D9FF46C0DAFFDECF08F0DDCF09F056ECD0
:1015D80011F008C0C7F009C0C8F0FAEF0AF045C01A
:1015E800D9FF46C0DAFFDE2A000EDD22D00E496E92
:1015F800FF0E4A6E45C0D9FF46C0DAFFDECFF6FFC0
:10160800DDCFF7FF0800F5504B6E4C6A49504B266A
:101618004A504C224C500AE10A0E4B5CD8A017EFF6
:101628000BF01AEF0BF0010E1BEF0BF0000E4F6ED4
:10163800506A4F505010D8A424EF0BF026EF0BF04F
:10164800F3EF0AF045C0D9FF46C0DAFFDECFF6FF58
:10165800DDCFF7FF0800F550750AD8A436EF0BF078
:1016680038EF0BF079EF0BF045C0D9FF46C0DAFF31
:10167800DE2A000EDD2247C0D9FF48C0DAFFDFCFDF
:1016880049F0020EDE26DFCF4AF0000EDD2249C007
:10169800D9FF4AC0DAFFDECF4BF0DDCF4CF04BC0AC
:1016A80052F04CC053F0546A556A566A576A586AE1
:1016B800596A43C01CF044C01DF052C01EF053C00C
:1016C8001FF054C020F055C021F056C022F057C07A
:1016D80023F058C024F059C025F078EC0FF01CC056
:1016E80043F01DC044F03CEF0CF045C0D9FF46C0A4
:1016F800DAFFDECFF6FFDDCFF7FF0800F550780AF6
:10170800D8B489EF0BF08BEF0BF09DEF0BF045C0D1
:10171800D9FF46C0DAFFDECFF6FFDDCFF7FF0800BE
:10172800F550580AD8A49BEF0BF09DEF0BF0EBEFA8
:101738000BF045C0D9FF46C0DAFFDECFF6FFDDCF9C
:10174800F7FF0800F5CF51F045C0D9FF46C0DAFFD2
:10175800DE2A000EDD2247C0D9FF48C0DAFFDFCFFE
:1017680049F0020EDE26DFCF4AF0000EDD2249C026
:10177800D9FF4AC0DAFFDECF4BF0DDCF4CF04BC0CB
:1017880052F04CC053F0546A556A566A576A586A00
:10179800596A43C01CF044C01DF052C01EF053C02B
:1017A8001FF054C020F055C021F056C022F057C099
:1017B80023F058C024F059C025F051C026F00BEC96
:1017C8000EF01CC043F01DC044F03CEF0CF045C0C7
:1017D800D9FF46C0DAFFDECFF6FFDDCFF7FF0800FE
:1017E800F550250AD8A4FBEF0BF0FDEF0BF014EF32
:1017F8000CF045C0D9FF46C0DAFFDE2A000EDD2214
:10180800000E026E250E016E43C003F044C004F0C2
:10181800EAEC13F0000E446E010E436E3CEF0CF040
:1018280045C0D9FF46C0DAFFDE2A000EDD22000ED1
:10183800446E000E436E3CEF0CF045C0D9FF46C025
:10184800DAFFDECFF6FFDDCFF7FF0800F550016EB7
:10185800026A43C003F044C004F0EAEC13F045C048
:10186800D9FF46C0DAFFDE2A000EDD220EEF0CF0AB
:10187800120000019151800B9E6F91519125A56F27
:1018880090AF49EF0CF04BEF0CF04CEF0CF0A5814A
:10189800A551D8B452EF0CF054EF0CF069EF0CF0EE
:1018A800A529D8A45AEF0CF05CEF0CF064EF0CF00B
:1018B800000E8E6F000E8F6F000E906F000E916FEE
:1018C800908F000E916F71EF0CF0000E8E6F000E6E
:1018D8008F6F000E906F000E916F9551800B9E1BBD
:1018E80095519525A66F94AF7CEF0CF07EEF0CF028
:1018F8007FEF0CF0A681A651D8B485EF0CF087EFE6
:101908000CF09CEF0CF0A629D8A48DEF0CF08FEF0B
:101918000CF097EF0CF0000E926F000E936F000E14
:10192800946F000E956F948F000E956FA4EF0CF0D6
:10193800000E926F000E936F000E946F000E956F5D
:101948009251931194119511D8A4ADEF0CF0AFEF0B
:101958000CF0C7EF0CF0000E8E6F000E8F6F000EAC
:10196800906F000E916F800E90137F0E91139E5111
:1019780091138EC08EF08FC08FF090C090F091C000
:1019880091F00AEF0EF0A551D8A4CDEF0CF0CFEFEF
:101998000CF0D9EF0CF0000E8E6F000E8F6F000E5A
:1019A800906F000E916F0AEF0EF0A651A5C096F049
:1019B800976B965F000E975B7F0E96259F6F000EC4
:1019C8009721A06F8EC09AF08FC09BF090C09CF0BA
:1019D80091C09DF0000E8E6F000E8F6F000E906FFD
:1019E800000E916F000EA16F000EA26F000EA36F84
:1019F800000EA46F000EA66F3AEF0DF0A651D8B4F2
:101A080008EF0DF00AEF0DF021EF0DF0D8909A379E
:101A18009B379C379D37D8908E378F3790379137C3
:101A2800A4AF19EF0DF01BEF0DF01CEF0DF08E8138
:101A3800D890A137A237A337A43792519A5D935112
:101A48009B5994519C5995519D59D8A02EEF0DF052
:101A580030EF0DF039EF0DF0A48D92519A5F93514C
:101A68009B5B94519C5B95519D5BA62B190EA665BB
:101A780040EF0DF042EF0DF002EF0DF09A519B117F
:101A88009C119D11D8B44BEF0DF04DEF0DF065EFA3
:101A98000DF0A18165EF0DF0D8908E378F37903714
:101AA8009137A4AF5AEF0DF05CEF0DF05DEF0DF03C
:101AB8008E81D890A137A237A337A4379F07D8A023
:101AC800A00790AF6AEF0DF06CEF0DF050EF0DF03E
:101AD800000EA66FA4AF73EF0DF075EF0DF099EF40
:101AE8000DF0FF0EA115966FFF0EA215976FFF0E52
:101AF800A315986F7F0EA415996F96519711981199
:101B08009911D8B48AEF0DF08CEF0DF090EF0DF02D
:101B1800010EA66F99EF0DF08EA195EF0DF097EFDE
:101B28000DF099EF0DF08CEF0DF0A651D8B49FEFA2
:101B38000DF0A1EF0DF0C5EF0DF0010E8E27000E90
:101B48008F239023912391A1ACEF0DF0AEEF0DF010
:101B5800C5EF0DF08EC096F08FC097F090C098F04A
:101B680091C099F09935993398339733963396C045
:101B78008EF097C08FF098C090F099C091F09F4B6D
:101B8800A02BA0BFD0EF0DF0A05108E19F29D8A04D
:101B9800D0EF0DF0D2EF0DF0DDEF0DF0000EA06FDD
:101BA8009F69000E8E6F000E8F6F000E906F000EF3
:101BB800916FA0BFEAEF0DF0A05106E19F05D8B0E4
:101BC800E8EF0DF0EAEF0DF0F8EF0DF0000EA06F62
:101BD800000E9F6F000E8E6F000E8F6F000E906FBD
:101BE800000E916F000E9E6F9FC0A5F0A5A1FFEF9C
:101BF8000DF001EF0EF004EF0EF0908F05EF0EF0F0
:101C0800909FD890A531916FBBEF0CF012000001A6
:101C1800CABF11EF0EF013EF0EF014EF0EF0CB93D6
:101C2800CABF21EF0EF0CA5106E1C905D8B01FEFAF
:101C38000EF021EF0EF027EF0EF0000E346E010EBD
:101C4800336E2BEF0EF0C9C033F0CAC034F0C7C0F2
:101C580035F0C8C036F0CBA934EF0EF036EF0EF0F1
:101C68003AEF0EF0FE0E3526FF0E36221EC037F074
:101C78001FC038F020C039F021C03AF022C03BF034
:101C880023C03CF024C03DF025C03EF0000E406E5D
:101C98001F0E3F6E000E0101EE6F06EF0FF03F06BC
:101CA800D8A040060F0E3714416E426A42BE66EF56
:101CB8000EF0425009E10A0E415CD8A066EF0EF022
:101CC80068EF0EF070EF0EF0570E4124416E000ED3
:101CD8004220426E76EF0EF0300E4124416E000E27
:101CE8004220426EBF0E276EFF0E286E2650296EC8
:101CF8002A6A2750292628502A222A500AE11A0E31
:101D0800295CD8A08AEF0EF08DEF0EF0010E8EEF51
:101D18000EF0000E2F6E306A2F503010D8B497EFA7
:101D28000EF099EF0EF0C9EF0EF09F0E276EFF0E22
:101D3800286E200E4110296E000E42102A6E275080
:101D4800292628502A222A500AE11A0E295CD8A0EE
:101D5800B0EF0EF0B3EF0EF0010EB4EF0EF0000E80
:101D6800316E326A31503210D8B4BDEF0EF0BFEF89
:101D78000EF0C9EF0EF041C007F042C008F045EC84
:101D880016F007C041F008C042F0CF0E3F24D96ECC
:101D9800010E4020DA6E41C0DFFF3306D8A03406BA
:101DA8003506D8A0360637C027F038C028F039C025
:101DB80029F03AC02AF03BC02BF03CC02CF03DC0C3
:101DC8002DF03EC02EF0050EF3EF0EF0D8902E3217
:101DD8002D322C322B322A32293228322732E82E61
:101DE800EAEF0EF027C037F028C038F029C039F0E4
:101DF8002AC03AF02BC03BF02CC03CF02DC03DF07F
:101E08002EC03EF040BE12EF0FF0405009E1020E26
:101E18003F5CD8A012EF0FF014EF0FF045EF0FF072
:101E28003750381039103A103B103C103D103E1016
:101E3800D8A421EF0FF023EF0FF053EF0EF034BECC
:101E480030EF0FF0345006E13304D8B02EEF0FF026
:101E580030EF0FF053EF0EF036BE3BEF0FF0365079
:101E680008E13504D8A03BEF0FF03DEF0FF045EF48
:101E78000FF00001CBB343EF0FF045EF0FF053EF36
:101E88000EF00001CBA94BEF0FF04DEF0FF063EF11
:101E98000FF03F06D8A04006CF0E3F24D96E010EA2
:101EA8004020DA6E26C0DFFF3F06D8A04006CF0EDE
:101EB8003F24D96E010E4020DA6E300EDF6E1CC052
:101EC80011F01DC012F0CF0E3F24136E010E4020FA
:101ED800146E35C015F036C016F04FEC14F011C072
:101EE8001CF012C01DF012000001CABF7EEF0FF0F7
:101EF80080EF0FF081EF0FF0CB93CABF8EEF0FF09A
:101F0800CA5106E1C905D8B08CEF0FF08EEF0FF07B
:101F180094EF0FF0000E2F6E010E2E6E98EF0FF05B
:101F2800C9C02EF0CAC02FF0C7C030F0C8C031F009
:101F38001EC032F01FC033F020C034F021C035F08D
:101F480022C036F023C037F024C038F025C039F05D
:101F5800000E3B6E1F0E3A6E000E0101EE6F2BEF66
:101F680010F03A06D8A03B06CF0E3A24D96E010EDF
:101F78003B20DA6E32C001F033C002F034C003F007
:101F880035C004F036C005F037C006F038C007F099
:101F980039C008F00A0E096E000E0A6E000E0B6EAC
:101FA800000E0C6E000E0D6E000E0E6E000E0F6E03
:101FB800000E106E1AEC13F001C026F002C027F0D4
:101FC80003C028F004C029F005C02AF006C02BF091
:101FD80007C02CF008C02DF02650300FDF6E2E06FB
:101FE800D8A02F063006D8A0310632C001F033C081
:101FF80002F034C003F035C004F036C005F037C035
:1020080006F038C007F039C008F00A0E096E000E55
:102018000A6E000E0B6E000E0C6E000E0D6E000E9A
:102028000E6E000E0F6E000E106EA2EC12F001C0C4
:1020380032F002C033F003C034F004C035F005C0FC
:1020480036F006C037F007C038F008C039F03A500B
:102058003B10D8B432EF10F034EF10F065EF10F009
:1020680032503310341035103610371038103910FC
:10207800D8A441EF10F043EF10F0B5EF0FF02FBEEA
:1020880050EF10F02F5006E12E04D8B04EEF10F0AC
:1020980050EF10F0B5EF0FF031BE5BEF10F031509C
:1020A80008E13004D8A05BEF10F05DEF10F065EFA9
:1020B80010F00001CBB363EF10F065EF10F0B5EF4F
:1020C8000FF01CC011F01DC012F0CF0E3A24136E91
:1020D800010E3B20146E30C015F031C016F04FECE5
:1020E80014F011C01CF012C01DF012000001886F1E
:1020F80000018851D8B483EF10F085EF10F0A7EFF6
:1021080010F083BF8CEF10F08AEF10F0A7EF10F0FB
:1021180080C084F081C085F082C086F083C087F0DB
:10212800841F851F861F871F842B000E8523862307
:10213800872384C08AF085C08BF086C08CF087C066
:102148008DF0AFEF10F080C08AF081C08BF082C0B4
:102158008CF083C08DF08051811182118311D8A435
:10216800B8EF10F0BAEF10F0C4EF10F0000E806F67
:10217800000E816F000E826F000E836F55EF11F015
:10218800960E896FCEEF10F0892BD8908D338C3353
:102198008B338A33000E8A15846F000E8B15856F7A
:1021A800000E8C15866FFE0E8D15876F8451851174
:1021B80086118711D8A4E3EF10F0E5EF10F0C8EF0F
:1021C80010F0F3EF10F0892B010E8A27000E8B23F5
:1021D8008C238D23D8908D338C338B338A33000E28
:1021E8008A15846F000E8B15856F000E8C15866F0F
:1021F800FF0E8D15876F8451851186118711D8A41C
:1022080008EF11F00AEF11F0E7EF10F012EF11F0FC
:102218008907D8908A378B378C378D378CBF17EF63
:1022280011F019EF11F021EF11F0020E89611FEF83
:1022380011F021EF11F00CEF11F089B126EF11F038
:1022480028EF11F029EF11F08C9FD890893389C0BD
:1022580084F0856B866B876B84C087F0866B856B93
:10226800846B84518A1385518B1386518C13875143
:102278008D138851D8B443EF11F045EF11F04DEFAD
:1022880011F083BF4CEF11F04AEF11F04DEF11F050
:102298008D8F8AC080F08BC081F08CC082F08DC099
:1022A80083F01200000E166E000E156E000E0F6EF3
:1022B800000E0E6E62EF11F0084A092A010E146E24
:1022C80008C0F6FF09C0F7FF0800F550200AD8B487
:1022D80070EF11F072EF11F08FEF11F0F70E0A6E38
:1022E800FF0E0B6E08C0F6FF09C0F7FF0800F55097
:1022F8000C6E0D6A0A500C260B500D220D5009E188
:10230800050E0C5CD8A08BEF11F08DEF11F08FEF5C
:1023180011F0000E146E14C010F0116A1050111054
:10232800D8A499EF11F09BEF11F060EF11F0A5EF31
:1023380011F0000E0F6E010E0E6E084A092ADAEF30
:1023480011F008C0F6FF09C0F7FF0800F5500A6E43
:102358000B6A0B50000AD8B4B4EF11F0DAEF11F0A1
:102368000A502B0AD8B4A1EF11F0060AD8B49DEF91
:1023780011F0DAEF11F015C001F016C002F0000EEE
:10238800046E0A0E036E4CEC17F008C0F6FF09C085
:10239800F7FF0800F550015E000E025A300E0124C6
:1023A800156E000E0220166EA1EF11F0D00E0A6E07
:1023B800FF0E0B6E08C0F6FF09C0F7FF0800F550C6
:1023C8000C6E0D6A0A500C260B500D220D500AE1B6
:1023D8000A0E0C5CD8A0F3EF11F0F6EF11F0010E25
:1023E800F7EF11F0000E126E136A12501310D8A4F2
:1023F80000EF12F002EF12F0BFEF11F00E500F10C5
:10240800D8A409EF12F00BEF12F019EF12F015C073
:102418000AF016C00BF00A1E0B1E0A4A0B2A0AC045
:1024280008F00BC009F01DEF12F015C008F016C037
:1024380009F01200000182358335896F8951D8A4CB
:1024480028EF12F02AEF12F034EF12F0000E806F2E
:10245800000E816F000E826F000E836FA1EF12F0E5
:1024680080C084F081C085F082C086F083C087F088
:10247800200E44EF12F0D8908733863385338433A7
:10248800E82E3FEF12F08451886F828FFF0E80177D
:10249800FF0E8117FF0E8217000E8317960E895FB5
:1024A80089BF5BEF12F059EF12F071EF12F089510A
:1024B800800A970FD8B063EF12F065EF12F067EF5C
:1024C80012F02AEF12F0D8908333823381338033AD
:1024D800893F67EF12F089EF12F01F0E896577EFD9
:1024E80012F079EF12F081EF12F02AEF12F0D89083
:1024F800803781378237833789078951D8A487EF96
:1025080012F089EF12F07BEF12F08851D8B48FEFF8
:1025180012F091EF12F099EF12F0831F821F811FC2
:10252800806D000E81238223832380C080F081C0C8
:1025380081F082C082F083C083F0120020EE11F097
:10254800070EDE6AE806FDE209500A100B100C10AF
:102558000D100E100F101010D8B4B5EF12F0B7EF21
:1025680012F009EF13F0010E196EC5EF12F0D890B2
:1025780009360A360B360C360D360E360F3610363F
:10258800192A10AECAEF12F0CCEF12F0BBEF12F01E
:10259800D8901136123613361436153616361736C5
:1025A80018360950015C0A5002580B5003580C5059
:1025B80004580D5005580E5006580F500758105023
:1025C8000858D8A0EAEF12F0ECEF12F0FDEF12F085
:1025D8000950015E0A50025A0B50035A0C50045A13
:1025E8000D50055A0E50065A0F50075A1050085AE7
:1025F8001180D89010320F320E320D320C320B325D
:102608000A320932192ECCEF12F011C001F012C0B3
:1026180002F013C003F014C004F015C005F016C092
:1026280006F017C007F018C008F0120009500A1089
:102638000B100C100D100E100F101010D8B427EF3F
:1026480013F029EF13F071EF13F0010E116E37EF4D
:1026580013F0D89009360A360B360C360D360E367E
:102668000F361036112A10AE3CEF13F03EEF13F080
:102678002DEF13F00950015C0A5002580B50035813
:102688000C5004580D5005580E5006580F50075856
:1026980010500858D8A053EF13F055EF13F065EF1A
:1026A80013F00950015E0A50025A0B50035A0C509D
:1026B800045A0D50055A0E50065A0F50075A10501A
:1026C800085AD89010320F320E320D320C320B32BB
:1026D8000A320932112E3EEF13F001C001F002C098
:1026E80002F003C003F004C004F005C005F006C002
:1026F80006F007C007F008C008F01200435249541A
:102708004943414C203A20424147204241475F53C8
:10271800544154455F494E5F504C41434500435234
:1027280049544943414C203A2042414720424147BD
:102738005F53544154455F50555454494E470043E4
:102748005249544943414C203A2042414720424192
:10275800475F53544154455F52454D4F56454400D9
:10276800435249544943414C203A20424147204270
:1027780041475F53544154455F54414B494E4700CC
:102788006E657720626167206D6F646520474C4FE6
:10279800525920676C6F72795F322E31006261671F
:1027A800206D6F646520474C4F525920676C6F72DB
:1027B800795F322E30310056657273696F6E203A38
:0B27C80020676C6F72795F322E3300C7
:1027D40003500410D8B4F1EF13F0F3EF13F0FCEF4F
:1027E40013F003500410D8A4FAEF13F0FCEF13F025
:1027F40001EF14F0015062EC17F04EEF14F020EEEC
:1028040004F00350D9260450DA22DE50DE10D8B486
:102814000EEF14F010EF14F02BEF14F020EE04F090
:102824000350D9260450DA2210EE02F00350E126B8
:102834000450E222DE50E65CE650800A096EDE5067
:10284400800A0958D8B029EF14F02BEF14F04EEF9A
:1028540014F020EE02F00350D9260450DA22DECF21
:1028640005F0DDCF06F003C0D9FF04C0DAFFDECFE8
:1028740007F0DDCF08F005500724D96E0650082074
:10288400DA6E01C0DFFF20EE02F00350D9260450B7
:10289400DA22DE2A000EDD2212000001CBA155EF60
:1028A40014F057EF14F061EF14F013C00AF014C0E1
:1028B4000BF011C00CF012C00DF09DEC16F016BE1A
:1028C40066EF14F068EF14F06EEF14F015C01AF010
:1028D40016C01BF072EF14F0000E1B6E000E1A6E81
:1028E400000E196E000E186E84EF14F0000E026EC6
:1028F400200E016E11C003F012C004F0EAEC13F0D4
:10290400184A192A1A50185C1950800A176E1B505D
:10291400800A1758D8A091EF14F093EF14F078EFD1
:1029240014F00001CBB199EF14F09BEF14F0A5EF74
:1029340014F013C00AF014C00BF011C00CF012C054
:102944000DF09DEC16F013C001F014C002F031EC50
:1029540017F01A500124116E1B500220126E12003F
:10296400B7C080F0B8C081F0B9C082F0BAC083F0BB
:10297400010E7AEC10F080C092F081C093F082C016
:1029840094F083C095F0000E00018E6F240E8F6FBB
:10299400F40E906F480E916F3DEC0CF08EC0A7F0D2
:1029A4008FC0A8F090C0A9F091C0AAF0000E000159
:1029B400AB6F000EAC6F800EAD6FBF0EAE6FC0EC90
:1029C40007F0A7C0BBF0A8C0BCF0A9C0BDF0AAC066
:1029D400BEF0BBC080F0BCC081F0BDC082F0BEC000
:1029E40083F01EEC12F000018051AF6E240EAC6E29
:1029F400900EAB6E12005E0EF66E2B0EF76E000E8E
:102A0400F86E02EE00F010EE6BF00900F5CFEEFF69
:102A1400E550E150FAE1040EF66E270EF76E000E53
:102A2400F86E01EE00F010EECFF00900F5CFEEFFE6
:102A3400E550E150FAE1BE0EF66E2E0EF76E000E72
:102A4400F86E00EEFAF010EE05F00900F5CFEEFF97
:102A5400E550E150FAE101EECFF0200EEE6AE8060F
:102A6400FDE100EEC5F02D0EEE6AE806FDE17F9073
:102A74007F92000EF86E000109EF00F05FEF15F091
:102A840080C0F6FF81C0F7FFF86A050EF76403D033
:102A94000800F55005D0F6CFE1FFF7CFE2FFE7508D
:102AA4000001826F804B812B9EA85BEF15F05DEFD8
:102AB40015F056EF15F082C0ADFF80C0F6FF81C05F
:102AC400F7FFF86A050EF76403D00800F55005D047
:102AD400F6CFE1FFF7CFE2FFE7500009D8A475EF86
:102AE40015F077EF15F042EF15F0120096EF15F0A0
:102AF40001C0F6FF02C0F7FFF86A050EF76403D0C1
:102B04000800F55005D0F6CFE1FFF7CFE2FFE7501C
:102B1400036E014A022A9EA892EF15F094EF15F075
:102B24008DEF15F003C0ADFF01C0F6FF02C0F7FF43
:102B3400F86A050EF76403D00800F55005D0F6CF07
:102B4400E1FFF7CFE2FFE7500009D8A4ACEF15F09E
:102B5400AEEF15F07AEF15F0120050726573732022
:102B64004F206F70656E202F204320636C6F736558
:102B7400202F205320737461747573202F205520E7
:102B8400556E4C6F636B20646F6F72202F2045204D
:102B9400636C656172206572726F7273202F2042BC
:102BA400207072696E7420626167206D6F646520A5
:102BB4002F20562076657273696F6E202F2048206F
:052BC40068656C700063
:102BCA005CC060F05DC061F0000E0001C66F000ECF
:102BDA00C56F03EF16F05AC043F05BC044F0600EB5
:102BEA00456E000E466E5EC047F05FC048F021ECAD
:102BFA000AF043500001C5274450C62360C0F6FFBF
:102C0A0061C0F7FF0800F5500009D8A40FEF16F0CD
:102C1A0011EF16F0F0EF15F0C5C05AF0C6C05BF020
:102C2A001200660E6A6E000E6B6E62C06CF063C0B4
:102C3A006DF0000E6F6E000E6E6E000E716E000E5D
:102C4A00706E6C0E5A6E000E5B6E64C05CF065C0EE
:102C5A005DF06A0E5E6E000E5F6EE5EC15F05AC00E
:102C6A0068F05BC069F06E506224D96E6F506320C1
:102C7A00DA6E000EDF6E68C062F069C063F012009F
:102C8A009F0E096EFF0E0A6E07C00BF008C00CF00B
:102C9A0009500B260A500C220C500AE11A0E0B5C42
:102CAA00D8A05AEF16F05DEF16F0010E5EEF16F09F
:102CBA00000E0D6E0E6A0D500E10D8B467EF16F0A6
:102CCA0069EF16F06FEF16F05F0E0714076E086AC9
:102CDA0073EF16F007C007F008C008F01200010EE3
:102CEA00076E200E01180210D8B47EEF16F080EF9E
:102CFA0016F099EF16F0F70E036EFF0E046E01C080
:102D0A0005F002C006F003500526045006220650BC
:102D1A0009E1050E055CD8A095EF16F097EF16F0BD
:102D2A0099EF16F0000E076E07C001F0026A120052
:102D3A00000E106E000E0F6EAEEF16F00EC001F010
:102D4A00026A0CC003F00DC004F0EAEC13F00F4A5B
:102D5A00102A0F500A24D96E10500B20DA6EDF5059
:102D6A000E6E0E50D8A4BCEF16F0BEEF16F0A3EF0D
:102D7A0016F012009F0E036EFF0E046E200E011055
:102D8A00056E000E0210066E035005260450062238
:102D9A0006500AE11A0E055CD8A0D6EF16F0D9EF54
:102DAA0016F0010EDAEF16F0000E016E026A12003A
:102DBA009F0E036EFF0E046E01C005F002C006F0FE
:102DCA00035005260450062206500AE11A0E055C35
:102DDA00D8A0F2EF16F0F5EF16F0010EF6EF16F0A6
:102DEA00000E016E026A1200BF0E036EFF0E046E21
:102DFA0001C005F002C006F0035005260450062261
:102E0A0006500AE11A0E055CD8A00EEF17F011EF72
:102E1A0017F0010E12EF17F0000E016E026A12008F
:102E2A00D00E036EFF0E046E01C005F002C006F05C
:102E3A00035005260450062206500AE10A0E055CD4
:102E4A00D8A02AEF17F02DEF17F0010E2EEF17F08A
:102E5A00000E016E026A120001C003F002C004F003
:102E6A0039EF17F0014A022A01C0D9FF02C0DAFF7E
:102E7A00DF50D8A443EF17F045EF17F037EF17F0FC
:102E8A000350015C016E04500258026E1200015098
:102E9A000302F3CF05F0F4CF06F001500402F35019
:102EAA00062602500302F350062605C001F006C0AA
:092EBA0002F0120014000D0A00E0
:022EC4001200FA
:107E3A0000435249544943414C203A204241472089
:107E4A004953204E4F5420494E20504C414345201F
:107E5A0043414E2754204150524F56450043524900
:107E6A00544943414C3A2074696D656F75742077A3
:107E7A00616974696E6720666F7220646F6F722C15
:107E8A00206C6F636B6564002A2A2A2A2A2A2A2A06
:107E9A002A2A2A2A2A2A2A2A2A2A2A2A2A2A2A2A38
:107EAA002A2A2A2A2A2A2A2A005741524E494E4762
:107EBA0020434C4F53452053454E534F522044497B
:107ECA005341424C4544005741524E494E47204F78
:107EDA0050454E2053454E534F5220444953414238
:107EEA004C454400435249544943414C3A20646F3B
:107EFA006F7220756E6C6F636B65640043524954F0
:107F0A004943414C3A20646F6F72206C6F636B6512
:107F1A006400435249544943414C3A20646F6F729A
:107F2A0020636C6F73656400202020494F424F41E3
:107F3A005244205343524557202121210020202D0D
:107F4A004279205045524D415155494D2053504197
:107F5A000020202D466F72204252494E4B53204337
:107F6A0048494C45005741524E494E47203A204213
:107F7A00414720494E2049540043524954494341FC
:107F8A004C3A20646F6F72206F70656E002020205B
:107F9A002D56657273696F6E3A20322E332E310078
:107FAA005354415445203A204241472000535441FA
:107FBA00525420434C4F5345005354415254204F7E
:107FCA0050454E00205348555454455220002047EE
:107FDA004154452000204C4F434B2000434C4F5303
:107FEA00454400253032580025303175002530329D
:057FFA0075002E0000DF
:020000040020DA
:08000000FFFFFFFFFFFFFFFF00
:020000040030CA
:0E000000FF08191EFF0185FF00C00FE00F4032
:00000001FF
