:020000040000FA
:0400000007EF00F016
:100008007F829BED08F0CCEF19F0720ED36E0F0EC5
:10001800C16E000E926E9368900E946E9568000EF5
:10002800966E810ED56E3C0ED76EB00ED66EF294DB
:10003800F29A010ECD6EB10ECF6EE00ECE6E260E88
:10004800CA6EFA0ECB6E89948B928B94000E0101C6
:10005800FE6F010EFD6F000EFC6F010EFB6F000EB0
:10006800FA6F010EF96F000EF86F010EF76F000EB0
:100078000001F96F010EF86F000EF76F010EF66FB1
:10008800000E0201726F010E716F000E0001F56F14
:10009800010EF46F000E0101F66F010EF56F000EF0
:1000A8000201706F010E6F6F000E6E6F010E6D6FA3
:1000B800000E0001F36F010EF26F000EF16F010EDA
:1000C800F06F000E02016C6F010E6B6F83B66FEF5D
:1000D80000F074EF00F00001BF6BBF2B76EF00F06B
:1000E8000001BF6BBF51F66FF76B83B47EEF00F072
:1000F80082EF00F0BF6BBF2B84EF00F00001BF6BF5
:10010800BF51F06FF16B000E0101F46F010EF36F38
:10011800000E0001EA6F000EE96F000EE86F000E96
:10012800E76F000EE66F000EE56F000EE46F000E3D
:10013800E36F000EE26F000EE16F000EFB6F630EBF
:10014800FA6F000EDE6F000EDD6F000E0101D26F38
:10015800000ED16F000E0001DC6F000EDB6F000E89
:10016800DA6F000ED96F000ED86F000ED76F000E31
:10017800D66F000ED56F000EB76F960EB86F000ED3
:10018800B96F000EBA6F81EC19F0F28EF28C9D8A6D
:10019800000E0001C46F000EC36FC4BFDDEF00F096
:1001A800C45109E1330EC35DD8A0DDEF00F0DFEFE5
:1001B80000F0E1EF00F0F4EF00F0FD0E806F7F0E2D
:1001C800816F0EEC1AF04E0E0001BF6FEB0EE82E99
:1001D800FED7BF2FFCD70001C34BC42BD1EF00F0D3
:1001E800000EE86F030EE76F8D80899A8B82000EF0
:1001F800D06F000ECF6FB10ECF6EE00ECE6E9E9018
:100208009D80A70E806F7F0E816F0EEC1AF0FC0E9A
:100218000001806F000E816F0EEC1AF05C0E000179
:10022800806F7E0E816F0EEC1AF0FC0E0001806F5D
:10023800000E816F0EEC1AF0000E0001D46F000E54
:10024800D36F81BA2AEF01F02CEF01F03FEF01F0F4
:10025800000ED46F010ED36FCC0E806F7E0E816FAF
:100268000EEC1AF0FC0E0001806F000E816F0EEC90
:100278001AF04CEF01F0480E806F7F0E816F0EEC84
:100288001AF0FC0E0001806F000E816F0EEC1AF060
:1002980081B851EF01F053EF01F076EF01F0000162
:1002A800F405F511D8A45BEF01F05DEF01F076EFEE
:1002B80001F0020E0001C06F040EBF6FBA0EE82EE7
:1002C800FED7BF2FFCD7C02FFAD700F081B86FEF49
:1002D80001F071EF01F076EF01F0000E0001F56F0B
:1002E800000EF46F81A87BEF01F07DEF01F082EF43
:1002F80001F0000E0001F56F010EF46F83B687EF71
:1003080001F089EF01F0ACEF01F00001F605F711FB
:10031800D8A491EF01F093EF01F0ACEF01F0020ED9
:100328000001C06F040EBF6FBA0EE82EFED7BF2FB4
:10033800FCD7C02FFAD700F083B6A5EF01F0A7EFDE
:1003480001F0ACEF01F0000E0001F76F000EF66F40
:1003580083A6B1EF01F0B3EF01F0B8EF01F0000EA2
:100368000001F76F010EF66F83B4BDEF01F0BFEF28
:1003780001F0E2EF01F00001F005F111D8A4C7EF98
:1003880001F0C9EF01F0E2EF01F0020E0001C06FC9
:10039800040EBF6FBA0EE82EFED7BF2FFCD7C02FB2
:1003A800FAD700F083B4DBEF01F0DDEF01F0E2EF04
:1003B80001F0000E0001F16F000EF06F83A4E7EF6B
:1003C80001F0E9EF01F0EEEF01F0000E0001F16F2E
:1003D800010EF06F0001DF51E011D8A4F6EF01F033
:1003E800F8EF01F001EF02F0F405F511D8B4FFEFD2
:1003F80001F001EF02F015EF02F00101F305F4112D
:10040800D8A409EF02F00BEF02F043EF02F000016D
:10041800F405F511D8A413EF02F015EF02F043EF3D
:1004280002F0000EE06F010EDF6F240E806F7F0E6A
:10043800816F0EEC1AF0FC0E0001806F000E816FC8
:100448000EEC1AF0F2AA2BEF02F02DEF02F043EFB8
:1004580002F0000E0001E66F000EE56FF29A899433
:1004680089928990E40E806F7E0E816F0EEC1AF0EF
:10047800FC0E0001806F000E816F0EEC1AF0000177
:10048800DF05E011D8A44BEF02F04DEF02F056EF74
:1004980002F0F451F511D8B454EF02F056EF02F01F
:1004A8006AEF02F00101F305F411D8A45EEF02F03F
:1004B80060EF02F098EF02F00001F451F511D8A4B2
:1004C80068EF02F06AEF02F098EF02F0000EE06FBA
:1004D800000EDF6FFA0E806F7E0E816F0EEC1AF041
:1004E800FC0E0001806F000E816F0EEC1AF0F2AA6C
:1004F80080EF02F082EF02F098EF02F0000E0001A8
:10050800E66F000EE56FF29A899489928990E40E5D
:10051800806F7E0E816F0EEC1AF0FC0E0001806F6A
:10052800000E816F0EEC1AF00001D351D411D8A43B
:10053800A0EF02F0A2EF02F026EF04F0F5C1BFF041
:10054800F6C1C0F0D890BF37C037F4C0C1F0F5C0CD
:10055800C2F0D890C137C237D890C137C237BF511F
:10056800C127C051C2230101FB510001C125E96F18
:100578000101FC510001C221EA6FF6C0BFF0F7C0CB
:10058800C0F0D890BF37C037F051BF25E36FF151A5
:10059800C021E46FF605F711D8A4D5EF02F0D7EF24
:1005A80002F0E4EF02F0F005F111D8A4DEEF02F05A
:1005B800E0EF02F0E4EF02F0000EE26F020EE16FEE
:1005C800F651F711D8A4EBEF02F0EDEF02F0FAEFD5
:1005D80002F0F005F111D8A4F4EF02F0F6EF02F002
:1005E800FAEF02F0000EE26F000EE16FF651F7111C
:1005F800D8A401EF03F003EF03F010EF03F0F0517C
:10060800F111D8A40AEF03F00CEF03F010EF03F098
:10061800000EE26F010EE16FF605F711D8A417EF8F
:1006280003F019EF03F026EF03F0F051F111D8A40D
:1006380020EF03F022EF03F026EF03F0000EE26F45
:10064800000EE16F83B62BEF03F02DEF03F04FEFB1
:1006580003F0F605F711D8A434EF03F036EF03F0F2
:100668004FEF03F0020E0001C06F040EBF6FBA0E09
:10067800E82EFED7BF2FFCD7C02FFAD700F083B6DD
:1006880048EF03F04AEF03F04FEF03F0000E0001CC
:10069800F76F000EF66F83A654EF03F056EF03F0E2
:1006A8005BEF03F0000E0001F76F010EF66F83B4E5
:1006B80060EF03F062EF03F085EF03F00001F0054F
:1006C800F111D8A46AEF03F06CEF03F085EF03F0A3
:1006D800020E0001C06F040EBF6FBA0EE82EFED7DF
:1006E800BF2FFCD7C02FFAD700F083B47EEF03F0FA
:1006F80080EF03F085EF03F0000E0001F16F000EAC
:10070800F06F83A48AEF03F08CEF03F091EF03F00E
:10071800000E0001F16F010EF06F0001F051F111B0
:10072800D8A499EF03F09BEF03F0A8EF03F0F6517C
:10073800F711D8A4A2EF03F0A4EF03F0A8EF03F099
:10074800000EFB6F020EFA6FF051F111D8A4AFEF53
:1007580003F0B1EF03F0BEEF03F0F605F711D8A4EC
:10076800B8EF03F0BAEF03F0BEEF03F0000EFB6F33
:10077800000EFA6FF005F111D8A4C5EF03F0C7EF2A
:1007880003F0D4EF03F0F651F711D8A4CEEF03F03D
:10079800D0EF03F0D4EF03F0000EFB6F000EFA6FFA
:1007A800F051F111D8B4DBEF03F0DDEF03F0EAEF1D
:1007B80003F0F651F711D8B4E4EF03F0E6EF03F0D5
:1007C800EAEF03F0000EFB6F010EFA6F020EFA1942
:1007D800FB11D8A4F2EF03F0F4EF03F0FDEF03F000
:1007E800F651F711D8B4FBEF03F0FDEF03F00BEF70
:1007F80004F0E551E611D8A404EF04F006EF04F084
:100808000BEF04F08B849E929D821FEF04F0E505A8
:10081800E611D8A412EF04F014EF04F01BEF04F073
:100828008B848D848D929E929D921FEF04F08B9401
:100838008D948D929D92000E0101F46F000EF36F5E
:100848004CEF01F0F5C1BFF0F6C1C0F0D890BF374A
:10085800C037F4C0C1F0F5C0C2F0D890C137C23774
:10086800D890C137C237BF51C127C051C223010137
:10087800FB510001C125E96F0101FC510001C221B2
:10088800EA6FF6C0BFF0F7C0C0F0D890BF37C037E6
:10089800F8C0C1F0F9C0C2F0D890C137C237D890BB
:1008A800C137C237BF51C127C051C223F251C12538
:1008B800E36FF351C221E46FF805F911D8A467EF8B
:1008C80004F069EF04F07FEF04F0F605F711D8A4FF
:1008D80070EF04F072EF04F07FEF04F0F205F3110B
:1008E800D8A479EF04F07BEF04F07FEF04F0000E5A
:1008F800E26F020EE16FF851F911D8A486EF04F007
:1009080088EF04F09EEF04F0F605F711D8A48FEFF6
:1009180004F091EF04F09EEF04F0F205F311D8A46F
:1009280098EF04F09AEF04F09EEF04F0000EE26FE7
:10093800030EE16FF851F911D8A4A5EF04F0A7EF61
:1009480004F0BDEF04F0F651F711D8A4AEEF04F0AF
:10095800B0EF04F0BDEF04F0F205F311D8A4B7EF3F
:1009680004F0B9EF04F0BDEF04F0000EE26F050EDD
:10097800E16FF851F911D8A4C4EF04F0C6EF04F000
:10098800DCEF04F0F651F711D8A4CDEF04F0CFEF67
:1009980004F0DCEF04F0F251F311D8A4D6EF04F020
:1009A800D8EF04F0DCEF04F0000EE26F060EE16F02
:1009B800F851F911D8A4E3EF04F0E5EF04F0FBEFE8
:1009C80004F0F605F711D8A4ECEF04F0EEEF04F00C
:1009D800FBEF04F0F251F311D8A4F5EF04F0F7EFB0
:1009E80004F0FBEF04F0000EE26F040EE16FF8056F
:1009F800F911D8A402EF05F004EF05F01AEF05F09D
:100A0800F651F711D8A40BEF05F00DEF05F01AEF2A
:100A180005F0F251F311D8A414EF05F016EF05F024
:100A28001AEF05F0000EE26F010EE16FF805F911FB
:100A3800D8A421EF05F023EF05F039EF05F0F651C2
:100A4800F711D8A42AEF05F02CEF05F039EF05F0DF
:100A5800F205F311D8A433EF05F035EF05F039EFBF
:100A680005F0000EE26F000EE16FF805F911D8A449
:100A780040EF05F042EF05F058EF05F0F605F711E5
:100A8800D8A449EF05F04BEF05F058EF05F0F25107
:100A9800F311D8A452EF05F054EF05F058EF05F024
:100AA800000EE26F000EE16F630EFA19FB11D8A475
:100AB80060EF05F062EF05F087EF05F0F805F91132
:100AC800D8A469EF05F06BEF05F083EF05F0F65158
:100AD800F711D8A472EF05F074EF05F083EF05F075
:100AE800F251F311D8A47BEF05F07DEF05F083EF09
:100AF80005F0000EFB6F020EFA6F87EF05F0000E8F
:100B0800FB6F000EFA6FFA51FB11D8A48EEF05F0B7
:100B180090EF05F0CBEF05F0F805F911D8A497EFA1
:100B280005F099EF05F0CBEF05F0F605F711D8A41D
:100B3800A0EF05F0A2EF05F0CBEF05F0F205F311F9
:100B4800D8A4A9EF05F0ABEF05F0CBEF05F0000E48
:100B5800FB6F010EFA6F000EDE6F000EDD6F0101F4
:100B6800F351F411D8A4BBEF05F0BDEF05F0CBEFBE
:100B780005F08F0E0001806F7F0E816F0EEC1AF06A
:100B8800FC0E0001806F000E816F0EEC1AF0000160
:100B9800FA05FB11D8A4D3EF05F0D5EF05F029EF3E
:100BA80006F0F805F911D8A4DCEF05F0DEEF05F042
:100BB800F4EF05F0F605F711D8A4E5EF05F0E7EF37
:100BC80005F0F4EF05F0F205F311D8A4EEEF05F007
:100BD800F0EF05F0F4EF05F0000EFB6F010EFA6F71
:100BE800F651F711D8A4FBEF05F0FDEF05F00AEF79
:100BF80006F0F205F311D8A404EF06F006EF06F0AC
:100C08000AEF06F0000EFB6F060EFA6FF805F911F1
:100C1800D8A411EF06F013EF06F029EF06F0F60559
:100C2800F711D8A41AEF06F01CEF06F029EF06F02A
:100C3800F251F311D8A423EF06F025EF06F029EFBF
:100C480006F0000EFB6F000EFA6F060EFA19FB1184
:100C5800D8A431EF06F033EF06F0E0EF06F0F80520
:100C6800F911D8A43AEF06F03CEF06F05FEF06F072
:100C7800F651F711D8A443EF06F045EF06F05FEF01
:100C880006F0F251F311D8A44CEF06F04EEF06F03F
:100C98005FEF06F0000EFB6F020EFA6F9B0E806F7F
:100CA8007F0E816F0EEC1AF0FC0E0001806F000EB3
:100CB800816F0EEC1AF00001F651F711D8A467EF16
:100CC80006F069EF06F076EF06F0F205F311D8A406
:100CD80070EF06F072EF06F076EF06F0000EFB6F8D
:100CE800060EFA6FF851F911D8A47DEF06F07FEFE0
:100CF80006F095EF06F0F605F711D8A486EF06F092
:100D080088EF06F095EF06F0F205F311D8A48FEFFF
:100D180006F091EF06F095EF06F0000EFB6F060E59
:100D2800FA6FF805F911D8A49CEF06F09EEF06F0CB
:100D3800B4EF06F0F605F711D8A4A5EF06F0A7EF73
:100D480006F0B4EF06F0F205F311D8A4AEEF06F002
:100D5800B0EF06F0B4EF06F0000EFB6F010EFA6F6D
:100D6800F851F911D8A4BBEF06F0BDEF06F0E0EF9B
:100D780006F0F651F711D8A4C4EF06F0C6EF06F056
:100D8800E0EF06F0F251F311D8A4CDEF06F0CFEF63
:100D980006F0E0EF06F0000EFB6F000EFA6F970EFC
:100DA800806F7E0E816F0EEC1AF0FC0E0001806FD2
:100DB800000E816F0EEC1AF0020E0001FA19FB11F9
:100DC800D8A4E9EF06F0EBEF06F05EEF07F0F85174
:100DD800F911D8A4F2EF06F0F4EF06F00AEF07F0E5
:100DE800F651F711D8A4FBEF06F0FDEF06F00AEF75
:100DF80007F0F251F311D8A404EF07F006EF07F05B
:100E08000AEF07F0000EFB6F040EFA6FF805F911F0
:100E1800D8A411EF07F013EF07F029EF07F0F65108
:100E2800F711D8A41AEF07F01CEF07F029EF07F025
:100E3800F251F311D8A423EF07F025EF07F029EFBB
:100E480007F0000EFB6F020EFA6FF605F711D8A433
:100E580030EF07F032EF07F043EF07F0000EFB6FBB
:100E6800000EFA6FDB0E806F7D0E816F0EEC1AF0AC
:100E7800FC0E0001806F000E816F0EEC1AF000016D
:100E8800F205F311D8A44BEF07F04DEF07F05EEF32
:100E980007F0000EFB6F000EFA6F060E806F7E0ED5
:100EA800816F0EEC1AF0FC0E0001806F000E816F4E
:100EB8000EEC1AF0040E0001FA19FB11D8A467EF22
:100EC80007F069EF07F0E5EF07F0F851F911D8A43A
:100ED80070EF07F072EF07F088EF07F0F651F7119F
:100EE800D8A479EF07F07BEF07F088EF07F0F20559
:100EF800F311D8A482EF07F084EF07F088EF07F02A
:100F0800000EFB6F050EFA6FF851F911D8A48FEF98
:100F180007F091EF07F0A7EF07F0F651F711D8A403
:100F280098EF07F09AEF07F0A7EF07F0F251F311E7
:100F3800D8A4A1EF07F0A3EF07F0A7EF07F0000E82
:100F4800FB6F040EFA6FF851F911D8A4AEEF07F051
:100F5800B0EF07F0C6EF07F0F605F711D8A4B7EF22
:100F680007F0B9EF07F0C6EF07F0F205F311D8A4C0
:100F7800C0EF07F0C2EF07F0C6EF07F0000EFB6FF7
:100F8800050EFA6FF805F911D8A4CDEF07F0CFEFE9
:100F980007F0E5EF07F0F651F711D8A4D6EF07F000
:100FA800D8EF07F0E5EF07F0F251F311D8A4DFEF1F
:100FB80007F0E1EF07F0E5EF07F0000EFB6F020E18
:100FC800FA6F050EFA19FB11D8A4EDEF07F0EFEF51
:100FD80007F078EF08F0F851F911D8A4F6EF07F008
:100FE800F8EF07F00EEF08F0F605F711D8A4FFEFB9
:100FF80007F001EF08F00EEF08F0F205F311D8A49E
:1010080008EF08F00AEF08F00EEF08F0000EFB6F8B
:10101800050EFA6FF851F911D8A415EF08F017EF7B
:1010280008F02DEF08F0F651F711D8A41EEF08F0DC
:1010380020EF08F02DEF08F0F205F311D8A427EF00
:1010480008F029EF08F02DEF08F0000EFB6F050EF1
:10105800FA6FF851F911D8A434EF08F036EF08F018
:101068004CEF08F0F651F711D8A43DEF08F03FEF28
:1010780008F04CEF08F0F251F311D8A446EF08F04D
:1010880048EF08F04CEF08F0000EFB6F000EFA6F07
:10109800F805F911D8A453EF08F055EF08F078EFE8
:1010A80008F0F605F711D8A45CEF08F05EEF08F039
:1010B80078EF08F0F205F311D8A465EF08F067EFB0
:1010C80008F078EF08F0000EFB6F010EFA6F8F0E34
:1010D800806F7F0E816F0EEC1AF0FC0E0001806F9E
:1010E800000E816F0EEC1AF0020E0001FA19FB11C6
:1010F800D8B481EF08F083EF08F08EEF08F0E551DF
:10110800E611D8A48AEF08F08CEF08F08EEF08F00B
:1011180006EF04F0E505E611D8A495EF08F097EF7F
:1011280008F01BEF04F014EF04F007EF00F00600DE
:10113800E1CF74F0E2CF75F0D9CF76F0DACF77F05F
:10114800F3CF78F0F4CF79F0F6CF7AF0F7CF7BF0E1
:10115800F8CF7CF0F5CF7DF09EAAB5EF08F0B7EF99
:1011680008F02CEF0BF09DAABCEF08F0BEEF08F0DA
:101178002CEF0BF09E9AAECF7EF0DFEF0AF0080E50
:101188000001E719E811D8A4CCEF08F0CEEF08F079
:101198002CEF0BF0000EE86F030EE76F8D80899A35
:1011A8008B82000ED06F000ECF6FB10ECF6EE00EA7
:1011B800CE6E9E909D80A70E016E7F0E026E46EC4D
:1011C8001AF0FC0E016E000E026E46EC1AF05C0E70
:1011D800016E7E0E026E46EC1AF0FC0E016E000ED9
:1011E800026E46EC1AF02CEF0BF0090E0001E7191D
:1011F800E811D8A402EF09F004EF09F02CEF0BF086
:10120800000EE86F020EE76F8D90898A8B82000EC0
:10121800D06F000ECF6FB10ECF6EE00ECE6E9E90E7
:101228009D80B30E016E7F0E026E46EC1AF0FC0E26
:10123800016E000E026E46EC1AF07A0E016E7E0EFA
:10124800026E46EC1AF0F1EF08F00001E551E611E4
:10125800D8A431EF09F033EF09F02CEF0BF0000EB2
:10126800E66F010EE56F898889968982899089845D
:10127800000EDC6F010EDB6F000EDA6F000ED96F07
:10128800000ED26F000ED16FF28AB40E016E7E0E80
:10129800026E46EC1AF0F1EF08F0000E0001D46F70
:1012A800000ED36F2CEF0BF0020E0001FA19FB11A0
:1012B800D8A461EF09F063EF09F069EF09F0000EB7
:1012C800DE6F010EDD6F2CEF0BF0000EFB6F000ED2
:1012D800FA6FAF0E016E7D0E026E46EC1AF0F1EF5A
:1012E80008F0BD0E016E010E026E46EC1AF0FC0EFF
:1012F800016E000E026E46EC1AF02CEF0BF00001A6
:10130800D351D411D8A48BEF09F08DEF09F09BEFDE
:1013180009F0A30E016E010E026E46EC1AF0FC0EE7
:10132800016E000E026E46EC1AF02CEF0BF0860EE2
:10133800016E010E026E46EC1AF0FC0E016E000EF4
:10134800026E46EC1AF02CEF0BF0820E016E7F0E47
:10135800026E46EC1AF0EB0E626E000E636EF50E2E
:10136800646E7F0E656EFAC066F0FBC067F0E4EC51
:101378001AF0EB0E016E000E026E46EC1AF0660EC5
:10138800016E7F0E026E46EC1AF0EB0E626E000ED6
:10139800636EF00E646E7F0E656EDDC066F0DEC0B3
:1013A80067F0E4EC1AF0EB0E016E000E026E46ECEC
:1013B8001AF0BE0E016E7F0E026E46EC1AF0EB0EAE
:1013C800626E000E636EEB0E646E7F0E656EE7C094
:1013D80066F0E8C067F0E4EC1AF0EB0E016E000E60
:1013E800026E46EC1AF0CF0E016E7F0E026E46ECCE
:1013F8001AF0EB0E626E000E636EF00E646E7F0ED6
:10140800656EE5C066F0E6C067F0E4EC1AF0EB0E36
:10141800016E000E026E46EC1AF0C80E016E7F0EC9
:10142800026E46EC1AF0EB0E626E000E636EF00E62
:10143800646E7F0E656EE9C066F0EAC067F0E4ECA2
:101448001AF0EB0E016E000E026E46EC1AF0FA0E60
:10145800016E7F0E026E46EC1AF0FC0E016E000E55
:10146800026E46EC1AF0740E016E7F0E026E46ECA8
:101478001AF0EB0E626E000E636EEB0E646E7F0E5A
:10148800656E80CF66F0676AE4EC1AF0EB0E016EC9
:10149800000E026E46EC1AF0D60E016E7F0E026E3A
:1014A80046EC1AF0EB0E626E000E636EEB0E646E85
:1014B8007F0E656E81CF66F0676AE4EC1AF0EB0E7A
:1014C800016E000E026E46EC1AF0DD0E016E7F0E04
:1014D800026E46EC1AF0EB0E626E000E636EEB0EB7
:1014E800646E7F0E656E82CF66F0676AE4EC1AF070
:1014F800EB0E016E000E026E46EC1AF0E40E016E61
:101508007F0E026E46EC1AF0EB0E626E000E636EF2
:10151800EB0E646E7F0E656E83CF66F0676AE4EC4F
:101528001AF0EB0E016E000E026E46EC1AF0380E41
:10153800016E7F0E026E46EC1AF0EB0E626E000E24
:10154800636EEB0E646E7F0E656EE3C066F0E4C0FA
:1015580067F0E4EC1AF0EB0E016E000E026E46EC3A
:101568001AF0570E016E7F0E026E46EC1AF0EB0E63
:10157800626E000E636EEB0E646E7F0E656EE1C0E8
:1015880066F0E2C067F0E4EC1AF0EB0E016E000EB4
:10159800026E46EC1AF0F1EF08F0000E016E020E32
:1015A800026E46EC1AF0FC0E016E000E026E46EC5E
:1015B8001AF02CEF0BF07E50726E736A7350000AAB
:1015C800D8B4E9EF0AF0D1EF0AF07250410AD8B462
:1015D80058EF09F0030AD8B483EF09F0010AD8B428
:1015E800C3EF08F0060AD8B451EF09F00A0AD8B4D4
:1015F800F9EF08F01C0AD8B4A9EF09F0060AD8B424
:1016080029EF09F0030AD8B475EF09F0370AD8B4FE
:1016180058EF09F0030AD8B483EF09F0010AD8B4E7
:10162800C3EF08F0060AD8B451EF09F00A0AD8B493
:10163800F9EF08F01C0AD8B4A9EF09F0060AD8B4E3
:1016480029EF09F0030AD8B475EF09F0D1EF0AF0D1
:10165800F2A431EF0BF033EF0BF0B5EF0BF0F2AA79
:1016680038EF0BF03AEF0BF0B5EF0BF0F2943C0EBD
:10167800D76EB00ED66E640E0001D125D16F000E64
:10168800D221D26FDB05DC11D8A44DEF0BF04FEF60
:101698000BF06FEF0BF089888996640ED925D96F06
:1016A800000EDA21DA6FDABF63EF0BF0B00ED95D06
:1016B800040EDA59D8A063EF0BF065EF0BF08DEF4D
:1016C8000BF0000EDC6F000EDB6F000EDA6F000E01
:1016D800D96F8DEF0BF089988996640ED925D96F4B
:1016E800000EDA21DA6FDABF83EF0BF0900ED95DC6
:1016F800010EDA59D8A083EF0BF085EF0BF08DEFD0
:101708000BF0000EDC6F010EDB6F000EDA6F000EBF
:10171800D96FD2BF99EF0BF0040ED15D290ED259C3
:10172800D8A099EF0BF09BEF0BF0B5EF0BF0000E84
:10173800E66F000EE56F000ED26F000ED16FF29AC1
:1017480089948992899089988996310E016E7E0EC6
:10175800026E46EC1AF0FC0E016E000E026E46ECAC
:101768001AF09EA0BAEF0BF0BCEF0BF01BEF0CF0D9
:101778009DA0C1EF0BF0C3EF0BF01BEF0CF09E9098
:10178800B10ECF6EE00ECE6E0A0E0001CF25CF6FE0
:10179800000ED021D06FD0BFDBEF0BF0AC0ECF5DC9
:1017A8000D0ED059D8A0DBEF0BF0DDEF0BF01BEFDF
:1017B8000CF0000ED06F000ECF6F9D908B928D9025
:1017C800899A030EE719E811D8A4EDEF0BF0EFEFB3
:1017D8000BF000EF0CF0AD0E016E7E0E026E46ECC3
:1017E8001AF0FC0E016E000E026E46EC1AF0000EA6
:1017F8000001E86F090EE76F020EE719E811D8A497
:1018080008EF0CF00AEF0CF01BEF0CF0B90E016EAC
:101818007F0E026E46EC1AF0FC0E016E000E026E90
:1018280046EC1AF0000E0001E86F080EE76F9EA262
:1018380020EF0CF022EF0CF078EF0CF09DA227EFD0
:101848000CF029EF0CF078EF0CF09E920A0E0001D4
:10185800CD25CD6F000ECE21CE6FD705D811D8A4D7
:1018680038EF0CF03AEF0CF05AEF0CF08D848D92B3
:101878000A0ED525D56F000ED621D66FD6BF4EEFEE
:101888000CF0D65109E18C0ED55DD8A04EEF0CF0C6
:1018980050EF0CF078EF0CF0000ED86F000ED76FF9
:1018A800000ED66F000ED56F78EF0CF08D948D92E8
:1018B8000A0ED525D56F000ED621D66FD6BF6EEF8E
:1018C8000CF0800ED55D070ED659D8A06EEF0CF03F
:1018D80070EF0CF078EF0CF0000ED86F010ED76F98
:1018E800000ED66F000ED56F7DC0F5FF7CC0F8FFE7
:1018F8007BC0F7FF7AC0F6FF79C0F4FF78C0F3FF2A
:1019080077C0DAFF76C0D9FF75C0E2FF74C0E1FF87
:101918007F9211000001AA51800BB36FAA51AA252A
:10192800B56FA9AF9AEF0CF09CEF0CF09DEF0CF09F
:10193800B581B551D8B4A3EF0CF0A5EF0CF0BAEF10
:101948000CF0B529D8A4ABEF0CF0ADEF0CF0B5EF67
:101958000CF0000EA76F000EA86F000EA96F000E06
:10196800AA6FA98F000EAA6FC2EF0CF0000EA76F26
:10197800000EA86F000EA96F000EAA6FAE51800B63
:10198800B46FB351B419D8B4CCEF0CF0CEEF0CF05F
:10199800CFEF0CF0B38DAE51AE25B46FADAFD7EF2E
:1019A8000CF0D9EF0CF0DAEF0CF0B481B451D8B4E4
:1019B800E0EF0CF0E2EF0CF0F7EF0CF0B429D8A44C
:1019C800E8EF0CF0EAEF0CF0F2EF0CF0000EAB6F62
:1019D800000EAC6F000EAD6F000EAE6FAD8F000E37
:1019E800AE6FFFEF0CF0000EAB6F000EAC6F000E89
:1019F800AD6F000EAE6FB551B45DD8B006EF0DF007
:101A080008EF0DF02FEF0DF0B3AD0DEF0DF00FEF68
:101A18000DF011EF0DF0800EB31BB5C0B6F0B4C0D9
:101A2800B5F0B6C0B4F0A7C0B6F0ABC0A7F0B6C06A
:101A3800ABF0A8C0B6F0ACC0A8F0B6C0ACF0A9C076
:101A4800B6F0ADC0A9F0B6C0ADF0AAC0B6F0AEC051
:101A5800AAF0B6C0AEF0000EB66FB551B4C0AFF084
:101A6800B06BAF5F000EB05BB0BF44EF0DF0B0518C
:101A780009E11A0EAF5DD8A044EF0DF046EF0DF066
:101A88007DEF0DF0A751A811A911AA11D8A44FEF05
:101A98000DF052EF0DF0010E53EF0DF0000EB66F82
:101AA800000EA76F000EA86F000EA96F000EAA6F98
:101AB800B4C0B5F086EF0DF0B6A165EF0DF067EF95
:101AC8000DF06DEF0DF0D890B6310109B66F6FEFDC
:101AD8000DF0D890B633A7A174EF0DF076EF0DF0A6
:101AE80077EF0DF0B68FAA35AA33A933A833A733F9
:101AF800B52BB451B55DD8A084EF0DF086EF0DF08D
:101B080060EF0DF0B3BD8BEF0DF08DEF0DF0CDEF65
:101B18000DF0B551D8A493EF0DF095EF0DF09FEFB0
:101B28000DF0000EA76F000EA86F000EA96F000E33
:101B3800AA6FEEEF0EF0AB51A727AC51A823AD5119
:101B4800A923AE51AA23AAA1ACEF0DF0AEEF0DF078
:101B58005AEF0EF0B6A1B3EF0DF0B5EF0DF0BBEFF5
:101B68000DF0D890B6310109B66FBDEF0DF0D890E1
:101B7800B633A7A1C2EF0DF0C4EF0DF0C5EF0DF01D
:101B8800B68FAA35AA33A933A833A733B52B5AEF92
:101B98000EF0AB51A75DAC51A859AD51A959AA5146
:101BA800800AAF6FAE51800AAF59D8B0DEEF0DF0A2
:101BB800E0EF0DF00BEF0EF0A751AB5DAF6FA85142
:101BC800AC59B06FA951AD59B16FAA51AE59B26FA6
:101BD800FF0EAF25A76FFF0EB021A86FFF0EB12132
:101BE800A96FFF0EB221AA6F800EB31BB66DB65156
:101BF800D8A401EF0EF003EF0EF013EF0EF0010E74
:101C0800A727000EA823A923AA2313EF0EF0AB5190
:101C1800A75FAC51A85BAD51A95BAE51AA5BA751B8
:101C2800A811A911AA11D8A41CEF0EF01EEF0EF0EE
:101C380053EF0EF0B651D8A424EF0EF026EF0EF0B5
:101C480053EF0EF0000EA76F000EA86F000EA96FDD
:101C5800000EAA6FEEEF0EF0D890A737A837A93775
:101C6800AA37B6AF3AEF0EF03CEF0EF03DEF0EF0AC
:101C7800A781B6A142EF0EF044EF0EF048EF0EF048
:101C8800D880B6374AEF0EF0D890B637B551D8B4E9
:101C980050EF0EF052EF0EF053EF0EF0B507A9AF6C
:101CA80058EF0EF05AEF0EF030EF0EF0000EB46F52
:101CB800B6AF61EF0EF063EF0EF07BEF0EF0B6C03B
:101CC800AFF07F0EAF17D8B46CEF0EF06EEF0EF0DA
:101CD80072EF0EF0010EB46F7BEF0EF0A7A177EF55
:101CE8000EF079EF0EF07BEF0EF06EEF0EF0B451C0
:101CF800D8B481EF0EF083EF0EF0AEEF0EF0010EC8
:101D0800A727000EA823A923AA23AAA18EEF0EF0C5
:101D180090EF0EF0AEEF0EF0A7C0AFF0A8C0B0F095
:101D2800A9C0B1F0AAC0B2F0B235B233B133B03302
:101D3800AF33AFC0A7F0B0C0A8F0B1C0A9F0B2C02F
:101D4800AAF0B529D8B4ABEF0EF0ADEF0EF0AEEFB8
:101D58000EF0B52BB529D8B4B4EF0EF0B6EF0EF0EF
:101D6800BEEF0EF0B551D8A4BCEF0EF0BEEF0EF0EA
:101D7800D0EF0EF0000EA76F000EA86F000EA96F2F
:101D8800000EAA6FB551D8A4CCEF0EF0CEEF0EF02E
:101D9800D0EF0EF0000EB36FB5A1D5EF0EF0D7EF70
:101DA8000EF0DAEF0EF0A98FDBEF0EF0A99FD890B6
:101DB800B531AA6FB3AFE3EF0EF0E5EF0EF0E6EF43
:101DC8000EF0AA8FA7C0A7F0A8C0A8F0A9C0A9F0D4
:101DD800AAC0AAF0120045C0D9FF46C0DAFFDECF7C
:101DE800F6FFDDCFF7FF0800F550250AD8A4FFEF6E
:101DF8000EF001EF0FF0EFEF10F045C0D9FF46C02D
:101E0800DAFFDE2A000EDD22000E0001C86F000E88
:101E1800C76FC7C0CBF0C8C0CCF0C969CA69000E8B
:101E28004E6E000E4D6E64EF0FF00001CB8145C081
:101E3800D9FF46C0DAFFDE2A000EDD2264EF0FF07C
:101E48000001CB831BEF0FF00001CB851BEF0FF0D8
:101E58000001CB871BEF0FF00001CB891BEF0FF0C0
:101E6800000E4E6E010E4D6E64EF0FF045C0D9FFA7
:101E780046C0DAFFDECFF6FFDDCFF7FF0800F550EA
:101E8800496E4A6A4A50000AD8B44DEF0FF034EF51
:101E98000FF04950200AD8B42CEF0FF0030AD8B439
:101EA80030EF0FF0080AD8B428EF0FF0060AD8B4BC
:101EB80019EF0FF01D0AD8B424EF0FF034EF0FF02C
:101EC8004D504E10D8B46BEF0FF06DEF0FF03AEFA6
:101ED8000FF00001CBA173EF0FF075EF0FF076EF65
:101EE8000FF0CB9345C0D9FF46C0DAFFDECFF6FF2F
:101EF800DDCFF7FF0800F5502A0AD8A486EF0FF0C7
:101F080088EF0FF0B1EF0FF045C0D9FF46C0DAFFF8
:101F1800DE2A000EDD2247C0D9FF48C0DAFFDFCF36
:101F280049F0020EDE26DFCF4AF0000EDD2249C05E
:101F3800D9FF4AC0DAFFDECFC7F0DDCFC8F0C8BF8F
:101F4800AAEF0FF0A8EF0FF0F4EF0FF0CB81C76DF9
:101F5800C81FD8B0C82BF4EF0FF045C0D9FF46C052
:101F6800DAFFDECF08F0DDCF09F024EC16F008C068
:101F7800C7F009C0C8F0C8EF0FF045C0D9FF46C088
:101F8800DAFFDE2A000EDD22D00E496EFF0E4A6E01
:101F980045C0D9FF46C0DAFFDECFF6FFDDCFF7FF39
:101FA8000800F5504B6E4C6A49504B264A504C225B
:101FB8004C500AE10A0E4B5CD8A0E5EF0FF0E8EFB1
:101FC8000FF0010EE9EF0FF0000E4F6E506A4F5000
:101FD8005010D8A4F2EF0FF0F4EF0FF0C1EF0FF0AC
:101FE80045C0D9FF46C0DAFFDECFF6FFDDCFF7FFE9
:101FF8000800F550750AD8A404EF10F006EF10F0A9
:1020080047EF10F045C0D9FF46C0DAFFDE2A000EC0
:10201800DD2247C0D9FF48C0DAFFDFCF49F0020E02
:10202800DE26DFCF4AF0000EDD2249C0D9FF4AC0C4
:10203800DAFFDECF4BF0DDCF4CF04BC052F04CC096
:1020480053F0546A556A566A576A586A596A43C0BF
:102058001CF044C01DF052C01EF053C01FF054C005
:1020680020F055C021F056C022F057C023F058C0C8
:1020780024F059C025F046EC14F01CC043F01DC0F4
:1020880044F00AEF11F045C0D9FF46C0DAFFDECFB1
:10209800F6FFDDCFF7FF0800F550780AD8B457EF00
:1020A80010F059EF10F06BEF10F045C0D9FF46C0A3
:1020B800DAFFDECFF6FFDDCFF7FF0800F550580A4C
:1020C800D8A469EF10F06BEF10F0B9EF10F045C02D
:1020D800D9FF46C0DAFFDECFF6FFDDCFF7FF0800F5
:1020E800F5CF51F045C0D9FF46C0DAFFDE2A000E11
:1020F800DD2247C0D9FF48C0DAFFDFCF49F0020E22
:10210800DE26DFCF4AF0000EDD2249C0D9FF4AC0E3
:10211800DAFFDECF4BF0DDCF4CF04BC052F04CC0B5
:1021280053F0546A556A566A576A586A596A43C0DE
:102138001CF044C01DF052C01EF053C01FF054C024
:1021480020F055C021F056C022F057C023F058C0E7
:1021580024F059C025F051C026F0D9EC12F01CC06B
:1021680043F01DC044F00AEF11F045C0D9FF46C046
:10217800DAFFDECFF6FFDDCFF7FF0800F550250ABE
:10218800D8A4C9EF10F0CBEF10F0E2EF10F045C083
:10219800D9FF46C0DAFFDE2A000EDD22000E026EED
:1021A800250E016E43C003F044C004F0B9EC18F0EA
:1021B800000E446E010E436E0AEF11F045C0D9FFC0
:1021C80046C0DAFFDE2A000EDD22000E446E000E45
:1021D800436E0AEF11F045C0D9FF46C0DAFFDECFE3
:1021E800F6FFDDCFF7FF0800F550016E026A43C025
:1021F80003F044C004F0B9EC18F045C0D9FF46C05C
:10220800DAFFDE2A000EDD22DCEF10F012000001FA
:102218009151800B9E6F91519125A56F90AF17EF4B
:1022280011F019EF11F01AEF11F0A581A551D8B4EA
:1022380020EF11F022EF11F037EF11F0A529D8A403
:1022480028EF11F02AEF11F032EF11F0000E8E6F27
:10225800000E8F6F000E906F000E916F908F000E22
:10226800916F3FEF11F0000E8E6F000E8F6F000E12
:10227800906F000E916F9551800B9E1B955195257F
:10228800A66F94AF4AEF11F04CEF11F04DEF11F03B
:10229800A681A651D8B453EF11F055EF11F06AEFAB
:1022A80011F0A629D8A45BEF11F05DEF11F065EFEE
:1022B80011F0000E926F000E936F000E946F000ED7
:1022C800956F948F000E956F72EF11F0000E926F5C
:1022D800000E936F000E946F000E956F925193113C
:1022E80094119511D8A47BEF11F07DEF11F095EFC3
:1022F80011F0000E8E6F000E8F6F000E906F000EA3
:10230800916F800E90137F0E91139E5191138EC082
:102318008EF08FC08FF090C090F091C091F0D8EF00
:1023280012F0A551D8A49BEF11F09DEF11F0A7EF83
:1023380011F0000E8E6F000E8F6F000E906F000E62
:10234800916FD8EF12F0A651A5C096F0976B965FE3
:10235800000E975B7F0E96259F6F000E9721A06F4A
:102368008EC09AF08FC09BF090C09CF091C09DF0F9
:10237800000E8E6F000E8F6F000E906F000E916F23
:10238800000EA16F000EA26F000EA36F000EA46FC7
:10239800000EA66F08EF12F0A651D8B4D6EF11F0D0
:1023A800D8EF11F0EFEF11F0D8909A379B379C37A0
:1023B8009D37D8908E378F3790379137A4AFE7EF96
:1023C80011F0E9EF11F0EAEF11F08E81D890A13702
:1023D800A237A337A43792519A5D93519B599451D0
:1023E8009C5995519D59D8A0FCEF11F0FEEF11F0C2
:1023F80007EF12F0A48D92519A5F93519B5B945111
:102408009C5B95519D5BA62B190EA6650EEF12F0ED
:1024180010EF12F0D0EF11F09A519B119C119D1101
:10242800D8B419EF12F01BEF12F033EF12F0A181BC
:1024380033EF12F0D8908E378F3790379137A4AF9B
:1024480028EF12F02AEF12F02BEF12F08E81D890BD
:10245800A137A237A337A4379F07D8A0A00790AF0A
:1024680038EF12F03AEF12F01EEF12F0000EA66FDE
:10247800A4AF41EF12F043EF12F067EF12F0FF0E36
:10248800A115966FFF0EA215976FFF0EA315986FF3
:102498007F0EA415996F9651971198119911D8B478
:1024A80058EF12F05AEF12F05EEF12F0010EA66F1D
:1024B80067EF12F08EA163EF12F065EF12F067EF8D
:1024C80012F05AEF12F0A651D8B46DEF12F06FEF78
:1024D80012F093EF12F0010E8E27000E8F23902337
:1024E800912391A17AEF12F07CEF12F093EF12F0A2
:1024F8008EC096F08FC097F090C098F091C099F078
:102508009935993398339733963396C08EF097C0A0
:102518008FF098C090F099C091F09F4BA02BA0BF6E
:102528009EEF12F0A05108E19F29D8A09EEF12F06B
:10253800A0EF12F0ABEF12F0000EA06F9F69000E33
:102548008E6F000E8F6F000E906F000E916FA0BF00
:10255800B8EF12F0A05106E19F05D8B0B6EF12F01F
:10256800B8EF12F0C6EF12F0000EA06F000E9F6FCA
:10257800000E8E6F000E8F6F000E906F000E916F21
:10258800000E9E6F9FC0A5F0A5A1CDEF12F0CFEF72
:1025980012F0D2EF12F0908FD3EF12F0909FD890F4
:1025A800A531916F89EF11F012000001CABFDFEF6A
:1025B80012F0E1EF12F0E2EF12F0CB93CABFEFEFA7
:1025C80012F0CA5106E1C905D8B0EDEF12F0EFEFED
:1025D80012F0F5EF12F0000E346E010E336EF9EFC3
:1025E80012F0C9C033F0CAC034F0C7C035F0C8C053
:1025F80036F0CBA902EF13F004EF13F008EF13F055
:10260800FE0E3526FF0E36221EC037F01FC038F0EA
:1026180020C039F021C03AF022C03BF023C03CF082
:1026280024C03DF025C03EF0000E406E1F0E3F6EE8
:10263800000E0101F26FD4EF13F03F06D8A0400658
:102648000F0E3714416E426A42BE34EF13F0425007
:1026580009E10A0E415CD8A034EF13F036EF13F00D
:102668003EEF13F0570E4124416E000E4220426E99
:1026780044EF13F0300E4124416E000E4220426EAA
:10268800BF0E276EFF0E286E2650296E2A6A275025
:10269800292628502A222A500AE11A0E295CD8A095
:1026A80058EF13F05BEF13F0010E5CEF13F0000E20
:1026B8002F6E306A2F503010D8B465EF13F067EFE3
:1026C80013F097EF13F09F0E276EFF0E286E200E63
:1026D8004110296E000E42102A6E275029262850D4
:1026E8002A222A500AE11A0E295CD8A07EEF13F09C
:1026F80081EF13F0010E82EF13F0000E316E326A93
:1027080031503210D8B48BEF13F08DEF13F097EFF0
:1027180013F041C007F042C008F013EC1BF007C0EB
:1027280041F008C042F0D30E3F24D96E010E40207C
:10273800DA6E41C0DFFF3306D8A034063506D8A0CC
:10274800360637C027F038C028F039C029F03AC01B
:102758002AF03BC02BF03CC02CF03DC02DF03EC011
:102768002EF0050EC1EF13F0D8902E322D322C32F8
:102778002B322A32293228322732E82EB8EF13F0CA
:1027880027C037F028C038F029C039F02AC03AF0FD
:102798002BC03BF02CC03CF02DC03DF02EC03EF0CD
:1027A80040BEE0EF13F0405009E1020E3F5CD8A0B4
:1027B800E0EF13F0E2EF13F013EF14F03750381096
:1027C80039103A103B103C103D103E10D8A4EFEFE2
:1027D80013F0F1EF13F021EF13F034BEFEEF13F016
:1027E800345006E13304D8B0FCEF13F0FEEF13F0D9
:1027F80021EF13F036BE09EF14F0365008E1350426
:10280800D8A009EF14F00BEF14F013EF14F0000147
:10281800CBB311EF14F013EF14F021EF13F0000114
:10282800CBA919EF14F01BEF14F031EF14F03F06A9
:10283800D8A04006D30E3F24D96E010E4020DA6E90
:1028480026C0DFFF3F06D8A04006D30E3F24D96E2E
:10285800010E4020DA6E300EDF6E1CC011F01DC074
:1028680012F0D30E3F24136E010E4020146E35C0B3
:1028780015F036C016F01EEC19F011C01CF012C08D
:102888001DF012000001CABF4CEF14F04EEF14F017
:102898004FEF14F0CB93CABF5CEF14F0CA5106E1B6
:1028A800C905D8B05AEF14F05CEF14F062EF14F0D9
:1028B800000E2F6E010E2E6E66EF14F0C9C02EF0BA
:1028C800CAC02FF0C7C030F0C8C031F01EC032F007
:1028D8001FC033F020C034F021C035F022C036F0DC
:1028E80023C037F024C038F025C039F0000E3B6E05
:1028F8001F0E3A6E000E0101F26FF9EF14F03A065E
:10290800D8A03B06D30E3A24D96E010E3B20DA6ECE
:1029180032C001F033C002F034C003F035C004F017
:1029280036C005F037C006F038C007F039C008F0E7
:102938000A0E096E000E0A6E000E0B6E000E0C6E6B
:10294800000E0D6E000E0E6E000E0F6E000E106E55
:1029580051EC18F001C026F002C027F003C028F09F
:1029680004C029F005C02AF006C02BF007C02CF0DF
:1029780008C02DF02650300FDF6E2E06D8A02F0687
:102988003006D8A0310632C001F033C002F034C09E
:1029980003F035C004F036C005F037C006F038C083
:1029A80007F039C008F00A0E096E000E0A6E000E14
:1029B8000B6E000E0C6E000E0D6E000E0E6E000EED
:1029C8000F6E000E106E70EC17F001C032F002C0EE
:1029D80033F003C034F004C035F005C036F006C04B
:1029E80037F007C038F008C039F03A503B10D8B477
:1029F80000EF15F002EF15F033EF15F032503310F9
:102A0800341035103610371038103910D8A40FEF9D
:102A180015F011EF15F083EF14F02FBE1EEF15F02F
:102A28002F5006E12E04D8B01CEF15F01EEF15F05C
:102A380083EF14F031BE29EF15F0315008E130046E
:102A4800D8A029EF15F02BEF15F033EF15F00001A2
:102A5800CBB331EF15F033EF15F083EF14F01CC052
:102A680011F01DC012F0D30E3A24136E010E3B2054
:102A7800146E30C015F031C016F01EEC19F011C0FC
:102A88001CF012C01DF012000001886F000188516F
:102A9800D8B451EF15F053EF15F075EF15F083BF6B
:102AA8005AEF15F058EF15F075EF15F080C084F067
:102AB80081C085F082C086F083C087F0841F851F9F
:102AC800861F871F842B000E85238623872384C0B7
:102AD8008AF085C08BF086C08CF087C08DF07DEFC2
:102AE80015F080C08AF081C08BF082C08CF083C062
:102AF8008DF08051811182118311D8A486EF15F0D1
:102B080088EF15F092EF15F0000E806F000E816FC0
:102B1800000E826F000E836F23EF16F0960E896FFA
:102B28009CEF15F0892BD8908D338C338B338A33F7
:102B3800000E8A15846F000E8B15856F000E8C159C
:102B4800866FFE0E8D15876F84518511861187114A
:102B5800D8A4B1EF15F0B3EF15F096EF15F0C1EF6B
:102B680015F0892B010E8A27000E8B238C238D23C9
:102B7800D8908D338C338B338A33000E8A15846F4B
:102B8800000E8B15856F000E8C15866FFF0E8D1548
:102B9800876F8451851186118711D8A4D6EF15F057
:102BA800D8EF15F0B5EF15F0E0EF15F08907D890DC
:102BB8008A378B378C378D378CBFE5EF15F0E7EF09
:102BC80015F0EFEF15F0020E8961EDEF15F0EFEF5C
:102BD80015F0DAEF15F089B1F4EF15F0F6EF15F00E
:102BE800F7EF15F08C9FD890893389C084F0856BF6
:102BF800866B876B84C087F0866B856B846B84518A
:102C08008A1385518B1386518C1387518D138851E4
:102C1800D8B411EF16F013EF16F01BEF16F083BFC0
:102C28001AEF16F018EF16F01BEF16F08D8F8AC00A
:102C380080F08BC081F08CC082F08DC083F01200D0
:102C4800000E166E000E156E000E0F6E000E0E6E44
:102C580030EF16F0084A092A010E146E08C0F6FF74
:102C680009C0F7FF0800F550200AD8B43EEF16F067
:102C780040EF16F05DEF16F0F70E0A6EFF0E0B6EC2
:102C880008C0F6FF09C0F7FF0800F5500C6E0D6A82
:102C98000A500C260B500D220D5009E1050E0C5C54
:102CA800D8A059EF16F05BEF16F05DEF16F0000EA6
:102CB800146E14C010F0116A10501110D8A467EFE8
:102CC80016F069EF16F02EEF16F073EF16F0000EFF
:102CD8000F6E010E0E6E084A092AA8EF16F008C0FA
:102CE800F6FF09C0F7FF0800F5500A6E0B6A0B5093
:102CF800000AD8B482EF16F0A8EF16F00A502B0A93
:102D0800D8B46FEF16F0060AD8B46BEF16F0A8EF38
:102D180016F015C001F016C002F0000E046E0A0E7F
:102D2800036E1AEC1CF008C0F6FF09C0F7FF080094
:102D3800F550015E000E025A300E0124156E000E89
:102D48000220166E6FEF16F0D00E0A6EFF0E0B6E95
:102D580008C0F6FF09C0F7FF0800F5500C6E0D6AB1
:102D68000A500C260B500D220D500AE10A0E0C5C7D
:102D7800D8A0C1EF16F0C4EF16F0010EC5EF16F09B
:102D8800000E126E136A12501310D8A4CEEF16F06C
:102D9800D0EF16F08DEF16F00E500F10D8A4D7EF25
:102DA80016F0D9EF16F0E7EF16F015C00AF016C0C6
:102DB8000BF00A1E0B1E0A4A0B2A0AC008F00BC0A9
:102DC80009F0EBEF16F015C008F016C009F0120074
:102DD800000182358335896F8951D8A4F6EF16F042
:102DE800F8EF16F002EF17F0000E806F000E816FFB
:102DF800000E826F000E836F6FEF17F080C084F0B3
:102E080081C085F082C086F083C087F0200E12EF63
:102E180017F0D8908733863385338433E82E0DEF47
:102E280017F08451886F828FFF0E8017FF0E81176D
:102E3800FF0E8217000E8317960E895F89BF29EF50
:102E480017F027EF17F03FEF17F08951800A970F17
:102E5800D8B031EF17F033EF17F035EF17F0F8EF80
:102E680016F0D8908333823381338033893F35EF2E
:102E780017F057EF17F01F0E896545EF17F047EF6A
:102E880017F04FEF17F0F8EF16F0D890803781372A
:102E98008237833789078951D8A455EF17F057EF40
:102EA80017F049EF17F08851D8B45DEF17F05FEFCE
:102EB80017F067EF17F0831F821F811F806D000EC8
:102EC80081238223832380C080F081C081F082C067
:102ED80082F083C083F0120020EE11F0070EDE6A44
:102EE800E806FDE209500A100B100C100D100E1028
:102EF8000F101010D8B483EF17F085EF17F0D7EF45
:102F080017F0010E196E93EF17F0D89009360A36AC
:102F18000B360C360D360E360F361036192A10AE13
:102F280098EF17F09AEF17F089EF17F0D89011364D
:102F38001236133614361536163617361836095023
:102F4800015C0A5002580B5003580C5004580D509D
:102F580005580E5006580F50075810500858D8A05A
:102F6800B8EF17F0BAEF17F0CBEF17F00950015E82
:102F78000A50025A0B50035A0C50045A0D50055A65
:102F88000E50065A0F50075A1050085A1180D89000
:102F980010320F320E320D320C320B320A32093235
:102FA800192E9AEF17F011C001F012C002F013C0E9
:102FB80003F014C004F015C005F016C006F017C0E1
:102FC80007F018C008F01200435249544943414CD5
:102FD800203A20424147204241475F5354415445DB
:102FE8005F494E5F504C4143450043524954494361
:102FF800414C203A20424147204241475F535441C7
:1030080054455F50555454494E470043524954491A
:1030180043414C203A20424147204241475F5354A4
:103028004154455F52454D4F56454400435249541B
:103038004943414C203A20424147204241475F538F
:10304800544154455F54414B494E470014006E6546
:103058007720626167206D6F646520474C4F525935
:1030680020676C6F72795F322E3100626167206D64
:103078006F646520474C4F525920676C6F72795FB7
:10308800322E30310056657273696F6E203A2067B0
:093098006C6F72795F322E330077
:1030A20009500A100B100C100D100E100F101010FA
:1030B200D8B45EEF18F060EF18F0A8EF18F0010E28
:1030C200116E6EEF18F0D89009360A360B360C36B0
:1030D2000D360E360F361036112A10AE73EF18F079
:1030E20075EF18F064EF18F00950015C0A500258AD
:1030F2000B5003580C5004580D5005580E500658EA
:103102000F50075810500858D8A08AEF18F08CEFCB
:1031120018F09CEF18F00950015E0A50025A0B5049
:10312200035A0C50045A0D50055A0E50065A0F50AD
:10313200075A1050085AD89010320F320E320D3200
:103142000C320B320A320932112E75EF18F001C01F
:1031520001F002C002F003C003F004C004F005C095
:1031620005F006C006F007C007F008C008F012001C
:1031720003500410D8B4C0EF18F0C2EF18F0CBEF30
:1031820018F003500410D8A4C9EF18F0CBEF18F0D0
:10319200D0EF18F001502FEC1CF01DEF19F020EECB
:1031A20004F00350D9260450DA22DE50DE10D8B4DF
:1031B200DDEF18F0DFEF18F0FAEF18F020EE04F070
:1031C2000350D9260450DA2210EE02F00350E12611
:1031D2000450E222DE50E65CE650800A096EDE50C0
:1031E200800A0958D8B0F8EF18F0FAEF18F01DEF7E
:1031F20019F020EE02F00350D9260450DA22DECF75
:1032020005F0DDCF06F003C0D9FF04C0DAFFDECF40
:1032120007F0DDCF08F005500724D96E06500820CC
:10322200DA6E01C0DFFF20EE02F00350D92604500F
:10323200DA22DE2A000EDD2212000001CBA124EFE9
:1032420019F026EF19F030EF19F013C00AF014C08C
:103252000BF011C00CF012C00DF06BEC1BF016BE9F
:1032620035EF19F037EF19F03DEF19F015C01AF0EC
:1032720016C01BF041EF19F0000E1B6E000E1A6E05
:10328200000E196E000E186E53EF19F0000E026E4A
:10329200200E016E11C003F012C004F0B9EC18F058
:1032A200184A192A1A50185C1950800A176E1B50B6
:1032B200800A1758D8A060EF19F062EF19F047EFB3
:1032C20019F00001CBB168EF19F06AEF19F074EF51
:1032D20019F013C00AF014C00BF011C00CF012C0A8
:1032E2000DF06BEC1BF013C001F014C002F0FFEC08
:1032F2001BF01A500124116E1B500220126E120094
:10330200B7C080F0B8C081F0B9C082F0BAC083F013
:10331200010E48EC15F080C092F081C093F082C09B
:1033220094F083C095F0000E00018E6F240E8F6F13
:10333200F40E906F480E916F0BEC11F08EC0A7F057
:103342008FC0A8F090C0A9F091C0AAF0000E0001B1
:10335200AB6F000EAC6F800EAD6FBF0EAE6F8EEC1A
:103362000CF0A7C0BBF0A8C0BCF0A9C0BDF0AAC0B9
:10337200BEF0BBC080F0BCC081F0BDC082F0BEC058
:1033820083F0ECEC16F000018051AF6E240EAC6EAF
:10339200900EAB6E1200FA0EF66E340EF76E000E41
:1033A200F86E02EE00F010EE6BF00900F5CFEEFFC2
:1033B200E550E150FAE1D00EF66E2F0EF76E000ED8
:1033C200F86E01EE00F010EED1F00900F5CFEEFF3D
:1033D200E550E150FAE15A0EF66E380EF76E000E25
:1033E200F86E0900F5CFFCF00900F5CFFDF00900F9
:1033F200F5CFFEF001EED1F0220EEE6AE806FDE115
:1034020000EEC5F02B0EEE6AE806FDE17F907F929A
:10341200000EF86E000109EF00F02DEF1AF080C0E7
:10342200F6FF81C0F7FFF86A050EF76403D00800C3
:10343200F55005D0F6CFE1FFF7CFE2FFE7500001EC
:10344200826F804B812B9EA829EF1AF02BEF1AF086
:1034520024EF1AF082C0ADFF80C0F6FF81C0F7FFF3
:10346200F86A050EF76403D00800F55005D0F6CFD0
:10347200E1FFF7CFE2FFE7500009D8A443EF1AF0CB
:1034820045EF1AF010EF1AF0120064EF1AF001C0C3
:10349200F6FF02C0F7FFF86A050EF76403D00800D2
:1034A200F55005D0F6CFE1FFF7CFE2FFE750036E0C
:1034B200014A022A9EA860EF1AF062EF1AF05BEF4F
:1034C2001AF003C0ADFF01C0F6FF02C0F7FFF86AB1
:1034D200050EF76403D00800F55005D0F6CFE1FFE2
:1034E200F7CFE2FFE7500009D8A47AEF1AF07CEF99
:1034F2001AF048EF1AF012005072657373204F20D1
:103502006F70656E202F204320636C6F7365202FD0
:10351200205320737461747573202F205520556ECB
:103522004C6F636B20646F6F72202F204520636C99
:10353200656172206572726F7273202F2042207053
:1035420072696E7420626167206D6F6465202F203E
:10355200562076657273696F6E202F204820686549
:033562006C70008A
:103566005CC060F05DC061F0000E0001C66F000E29
:10357600C56FD1EF1AF05AC043F05BC044F0600E3D
:10358600456E000E466E5EC047F05FC048F0EFEC39
:103596000EF043500001C5274450C62360C0F6FF15
:1035A60061C0F7FF0800F5500009D8A4DDEF1AF056
:1035B600DFEF1AF0BEEF1AF0C5C05AF0C6C05BF0D6
:1035C6001200660E6A6E000E6B6E62C06CF063C00F
:1035D6006DF0000E6F6E000E6E6E000E716E000EB8
:1035E600706E6C0E5A6E000E5B6E64C05CF065C049
:1035F6005DF06A0E5E6E000E5F6EB3EC1AF05AC096
:1036060068F05BC069F06E506224D96E6F5063201B
:10361600DA6E000EDF6E68C062F069C063F01200F9
:103626009F0E096EFF0E0A6E07C00BF008C00CF065
:1036360009500B260A500C220C500AE11A0E0B5C9C
:10364600D8A028EF1BF02BEF1BF0010E2CEF1BF080
:10365600000E0D6E0E6A0D500E10D8B435EF1BF02D
:1036660037EF1BF03DEF1BF05F0E0714076E086A7D
:1036760041EF1BF007C007F008C008F01200010E6A
:10368600076E200E01180210D8B44CEF1BF04EEF57
:103696001BF067EF1BF0F70E036EFF0E046E01C002
:1036A60005F002C006F00350052604500622065017
:1036B60009E1050E055CD8A063EF1BF065EF1BF072
:1036C60067EF1BF0000E076E07C001F0026A1200DA
:1036D600000E106E000E0F6E7CEF1BF00EC001F098
:1036E600026A0CC003F00DC004F0B9EC18F00F4AE2
:1036F600102A0F500A24D96E10500B20DA6EDF50B4
:103706000E6E0E50D8A48AEF1BF08CEF1BF071EFF3
:103716001BF012009F0E036EFF0E046E200E0110AA
:10372600056E000E0210066E035005260450062292
:1037360006500AE11A0E055CD8A0A4EF1BF0A7EF0D
:103746001BF0010EA8EF1BF0000E016E026A1200BC
:103756009F0E036EFF0E046E01C005F002C006F058
:10376600035005260450062206500AE11A0E055C8F
:10377600D8A0C0EF1BF0C3EF1BF0010EC4EF1BF087
:10378600000E016E026A1200BF0E036EFF0E046E7B
:1037960001C005F002C006F00350052604500622BB
:1037A60006500AE11A0E055CD8A0DCEF1BF0DFEF2D
:1037B6001BF0010EE0EF1BF0000E016E026A120014
:1037C600D00E036EFF0E046E01C005F002C006F0B7
:1037D600035005260450062206500AE10A0E055C2F
:1037E600D8A0F8EF1BF0FBEF1BF0010EFCEF1BF06F
:1037F600000E016E026A120001C003F002C004F05E
:1038060007EF1CF0014A022A01C0D9FF02C0DAFF05
:10381600DF50D8A411EF1CF013EF1CF005EF1CF0DD
:103826000350015C016E04500258026E12000150F2
:103836000302F3CF05F0F4CF06F001500402F35073
:10384600062602500302F350062605C001F006C004
:0738560002F012000D0A0050
:02385E00120056
:107DAE0000435249544943414C203A204241472016
:107DBE004953204E4F5420494E20504C41434520AC
:107DCE0043414E2754204150524F5645004352498D
:107DDE00544943414C203A20424147204241475F9B
:107DEE0053544154455F494E504C414345203078E1
:107DFE003030203078303100435249544943414CA1
:107E0E00203A20424147204241475F554E4C4F4356
:107E1E004B45445F4F50454E2030783030203078FF
:107E2E00303200435249544943414C3A2074696DF3
:107E3E00656F75742077616974696E6720666F72FD
:107E4E0020646F6F722C206C6F636B6564005741FA
:107E5E00524E494E4720434C4F53452053454E53A7
:107E6E004F522044495341424C4544005741524ED3
:107E7E00494E47204F50454E2053454E534F5220AA
:107E8E0044495341424C45440043524954494341AD
:107E9E004C203A2042414720504C41434544204318
:107EAE004C4F53454400435249544943414C3A20A8
:107EBE00646F6F7220756E6C6F636B6564004D6FCF
:107ECE00646F4469726563746F20636F6E66696771
:107EDE00757261646F00435249544943414C3A20D4
:107EEE00646F6F72206C6F636B656400435249540C
:107EFE004943414C3A20646F6F7220636C6F736517
:107F0E0064005741524E494E47203A204241472085
:107F1E00494E20495400435249544943414C3A205A
:107F2E00646F6F72206F70656E0020204241475F54
:107F3E0053454E534F52203078004D6F646F206979
:107F4E006E6469726563746F00204241475F5354DB
:107F5E004154555320307800204241475F415052E2
:107F6E004F5645442000535441545553203A204116
:107F7E00203078005354415445203A204241472046
:107F8E00004241472052454D4F564544004241471D
:107F9E0020494E504C4143450053544152542043C6
:107FAE004C4F5345005354415254204F50454E00B0
:107FBE0020534855545445522000204741544520E3
:107FCE0000204C4F434B20002020422030780020D0
:107FDE002043203078002020442030780025303295
:107FEE005800253031750025303275002030002EB6
:027FFE00000081
:020000040020DA
:08000000FFFFFFFFFFFFFFFF00
:020000040030CA
:0E000000FF08191EFF0185FF00C00FE00F4032
:00000001FF
